:020000040000FA
:1000000013EF35F0C96E1200F6EF30F0DCEC16F0AD
:1000100030EC15F0FDD7120048EF33F0D9CFE5FFF3
:10002000E1CFD9FF00C0E5FF01C0E5FF02C0E5FF59
:1000300003C0E5FF04C0E5FF05C0E5FF06C0E5FF1E
:1000400007C0E5FF08C0E5FF09C0E5FF0AC0E5FFFE
:100050000BC0E5FF0CC0E5FF0DC0E5FF0EC0E5FFDE
:100060000FC0E5FF10C0E5FF11C0E5FF12C0E5FFBE
:1000700013C0E5FF14C0E5FF15C0E5FF16C0E5FF9E
:1000800017C0E5FF18C0E5FF19C0E5FF1AC0E5FF7E
:100090001BC0E5FF1CC0E5FF1DC0E5FF1EC0E5FF5E
:1000A0001FC0E5FF20C0E5FF21C0E5FF22C0E5FF3E
:1000B00023C0E5FF24C0E5FF25C0E5FF020EDBCF2E
:1000C00000F0030EDBCF01F0040EDBCF02F0025094
:1000D000086E0150076E0050066EE56A100EE56E60
:1000E0000850E56E0750E56E0650E56E800EE56E31
:1000F0000F0EE56E230EE56E97EC27F0080EE12655
:100100002BCF03F02CCF04F02DCF05F02ECF06F02F
:1001100003C007F004C008F005C009F006C00AF0EB
:10012000D8800AAED8900AE30A1E091E081E076C82
:1001300005E1082A03E1092AD8B40A2A23CF0BF0E3
:1001400024CF0CF0E86A0F0124BFFF0E0D6E0E6E77
:10015000D8902731106E26310F6ED89010320F32A2
:100160002851E840E840C00B10122841E8403F0BFE
:10017000E8BAC009116E126A11BE12680F500B5C0A
:100180000F6E10500C58106E11500D58116E125009
:100190000E58126ED89012AED880D8A04ED0125001
:1001A000800F800F08E1000E115C05E1000E105C6D
:1001B00002E1010E0F5CD8B040D00A340A30166E4E
:1001C0000930156E0830146E0730136E31CF17F0FA
:1001D00032CF18F0E86A0F0132BFFF0E196E800FA0
:1001E000F36E1650800FF35C08E11550195C05E1C1
:1001F0001450185C02E11350175C1FE30C50156E8D
:1002000015260D34166ED890153616360B44E84474
:10021000FC0B146E0B50E844E844030B15120F015D
:10022000256B1450266F1550276F1650286F2B6BB7
:100230002C6B2D6B2E6BA8EF04F00850076E095045
:10024000086ED89008320732D890083207320A5028
:10025000E840E840C00B08120A40E8403F0BE8BA0B
:10026000C0090A6A083408300A6E0730096EE86A65
:100270000ABEFF0E0B6E0C6E07C00DF008C00EF02C
:10028000E86A08BEFF0E136EE56E1350E56E0E5061
:10029000E56E0D50E56E0C50E56E0B50E56E0A50A4
:1002A000E56E0950E56EFDEC1BF0096EF3CF0AF028
:1002B000F4CF0BF0E9CF0CF0080EE12631CF0DF0B2
:1002C00032CF0EF0E86A0F0132BFFF0E136E146ECC
:1002D000E56E1350E56E0E50E56E0D50E56E0C5058
:1002E000E56E0B50E56E0A50E56E0950E56EA1EC27
:1002F00020F0096EF3CF0AF0080EE12629CF0BF0AB
:100300002ACF0CF0E86A0F012ABFFF0E156E0C50C1
:10031000196E192615341A6ED89019361A360B44F0
:10032000E844FC0B186E0B50E844E844030B191228
:10033000176AD88006AED890D8B064D109C00BF047
:100340000AC00CF0E86A0ABEFF0E156E800FF36E4D
:100350001250800FF35C08E11150155C05E110505C
:100360000C5C02E10F500B5CD8B024D10650800F1A
:10037000F36E1A50800FF35C08E11950055C05E13B
:100380001850045C02E11750035CD8B0ECD02FCFBA
:100390000BF030CF0CF0E86A0F0130BFFF0E156E86
:1003A000166E03500B2604500C22055015220650E1
:1003B00016220B500F012B6F0C502C6F15502D6F08
:1003C00016502E6F31CF0BF032CF0CF02FCF15F02F
:1003D00030CF16F00C50800FF36E1650800FF35C88
:1003E00002E115500B5CD8B0A2D02BCF1BF02CCF64
:1003F0001CF02DCF1DF02ECF1EF0D8901D30206E9A
:100400001C301F6ED89020321F321E50E840E8404A
:10041000C00B20121E40E8403F0BE8BAC009226A18
:100420001F50076E2050086E08340830206E0730C9
:100430001F6EE86A20BEFF0E216E226E07C023F0F9
:1004400008C024F0E86A08BEFF0E256EE56E255050
:10045000E56E2450E56E2350E56E2250E56E215086
:10046000E56E2050E56E1F50E56EFDEC1BF01F6E33
:10047000F3CF20F0F4CF21F0E9CF22F0080EE126EF
:100480000BC023F00CC024F0E86A0CBEFF0E256EF2
:10049000E56E2550E56E2450E56E2350E56E225042
:1004A000E56E2150E56E2050E56E1F50E56EA1EC23
:1004B00020F01F6EF3CF20F0080EE1261F50096ECA
:1004C00020500A6E09C01FF00AC020F0E86A0ABE78
:1004D000FF0E216E226E1250800FF36E2250800F9D
:1004E000F35C08E12150115C05E12050105C02E151
:1004F0001F500F5C1CE20B50155C0B6E0C50165815
:100500000C6EE86A0CBEFF0E156E166E0B501B5E6D
:100510000C501C5A15501D5A16501E5A1B500F01D4
:100520002B6F1C502C6F1D502D6F1E502E6F1A50AC
:10053000800FF36E0F012E51800FF35C08E12D51F7
:10054000195C05E12C51185C02E12B51175CD8B005
:10055000D8D117500F012B6F18502C6F19502D6FD9
:100560001A502E6FCED11A50800FF36E0650800FA6
:10057000F35C08E10550195C05E10450185C02E1E8
:100580000350175CD8B0BDD10D50035C0B6E0E50FC
:1005900004580C6E13500558156E14500658166EFC
:1005A0000B500F012B6F0C502C6F15502D6F1650E8
:1005B0002E6FA7D12FCF0BF030CF0CF0E86A0F01D0
:1005C00030BFFF0E156E166E0D500B260E500C220E
:1005D00013501522145016220B50035C0B6E0C5056
:1005E00004580C6E15500558156E16500658166EA8
:1005F0000B500F012B6F0C502C6F15502D6F165098
:100600002E6F7FD10A1E096CD8B40A2A09C00BF0DC
:100610000AC00CF0E86A0ABEFF0E156E166E125084
:10062000800FF36E1650800FF35C08E11550115CDB
:1006300005E10C50105C02E10B500F5CD8B03ED1CC
:100640001A1C166E191C156E181C0C6E171C0B6EDE
:100650000B2A04E10C2A02E1154A162A1650800FD3
:10066000F36E0650800FF35C08E10550155C05E160
:1006700004500C5C02E103500B5CD8B0F8D02FCFD3
:1006800017F030CF18F0E86A0F0130BFFF0E196E77
:100690001A6E1750035C176E18500458186E1950D4
:1006A0000558196E1A5006581A6E17500F012B6F05
:1006B00018502C6F19502D6F1A502E6F31CF17F024
:1006C00032CF18F02FCF19F030CF1AF01850800F1A
:1006D000F36E1A50800FF35C02E11950175CD8B02A
:1006E000AAD02BCF1BF02CCF1CF02DCF1DF02ECF7E
:1006F0001EF0D8901D30206E1C301F6ED890203216
:100700001F321E50E840E840C00B20121E40E84057
:100710003F0BE8BAC009216E226A21BE2268221E60
:10072000211E201E1F6C05E1202A03E1212AD8B4D6
:10073000222A1F50076E2050086E08340830206EA1
:1007400007301F6EE86A20BEFF0E216E226EE86A37
:1007500008BEFF0E236EE56E2350E56E0850E56E71
:100760000750E56E2250E56E2150E56E2050E56E93
:100770001F50E56EFDEC1BF0076EF3CF08F0F4CFD1
:100780001FF0E9CF20F0080EE12617C021F018C0B5
:1007900022F0E86A18BEFF0E236EE56E2350E56E68
:1007A0002250E56E2150E56E2050E56E1F50E56E3B
:1007B0000850E56E0750E56EA1EC20F0076EF3CF10
:1007C00008F0080EE126081E076C02E1082A00E185
:1007D0000750096E08500A6EE86A0ABEFF0E076EDF
:1007E000800FF36E1250800FF35C08E11150075C2C
:1007F00005E110500A5C02E10F50095C1CE2175041
:10080000195C176E18501A58186EE86A18BEFF0E59
:10081000076E086E17501B2618501C2207501D2209
:1008200008501E221B500F012B6F1C502C6F1D50A7
:100830002D6F1E502E6F0F012E51800FF36E16502C
:10084000800FF35C08E115502D5D05E10C502C5D27
:1008500002E10B502B5DD8B054D00B500F012B6F21
:100860000C502C6F15502D6F16502E6F4AD006501D
:10087000800FF36E1650800FF35C08E11550055C95
:1008800005E10C50045C02E10B50035CD8B039D098
:100890000D500324076E0E500420086E13500520DF
:1008A000096E145006200A6E07500F012B6F085076
:1008B0002C6F09502D6F0A502E6F23D02FCF07F0C9
:1008C00030CF08F0E86A0F0130BFFF0E096E0A6EE4
:1008D00007500D2608500E22095013220A501422E8
:1008E0000D5003260E5004221350052214500622E8
:1008F00003500F012B6F04502C6F05502D6F0650C5
:100900002E6FD8900F012D31046E2C31036ED890CC
:10091000043203322E51E840E840C00B04122E414D
:10092000E8403F0BE8BAC009056E066A05BE0668D6
:10093000255103262651042227510522285106223B
:100940000350256F0450266F0550276F0650286FFF
:10095000E56A100EE56E800EE56E0F0EE56E230E55
:10096000E56E0250E56E0150E56E0050E56E97ECC5
:1009700027F0080EE126E4CF25F0E4CF24F0E4CF01
:1009800023F0E4CF22F0E4CF21F0E4CF20F0E4CF55
:100990001FF0E4CF1EF0E4CF1DF0E4CF1CF0E4CF55
:1009A0001BF0E4CF1AF0E4CF19F0E4CF18F0E4CF55
:1009B00017F0E4CF16F0E4CF15F0E4CF14F0E4CF55
:1009C00013F0E4CF12F0E4CF11F0E4CF10F0E4CF55
:1009D0000FF0E4CF0EF0E4CF0DF0E4CF0CF0E4CF55
:1009E0000BF0E4CF0AF0E4CF09F0E4CF08F0E4CF55
:1009F00007F0E4CF06F0E4CF05F0E4CF04F0E4CF55
:100A000003F0E4CF02F0E4CF01F0E4CF00F0E4CF54
:100A1000D9FF1200D9CFE5FFE1CFD9FF00C0E5FF34
:100A200001C0E5FF02C0E5FF03C0E5FF04C0E5FF2C
:100A300005C0E5FF06C0E5FF07C0E5FF08C0E5FF0C
:100A400009C0E5FF0AC0E5FF0BC0E5FF0CC0E5FFEC
:100A50000DC0E5FF0EC0E5FF0FC0E5FF10C0E5FFCC
:100A600011C0E5FF12C0E5FF13C0E5FF14C0E5FFAC
:100A700015C0E5FF16C0E5FF17C0E5FF18C0E5FF8C
:100A800019C0E5FF1AC0E5FF1BC0E5FF1CC0E5FF6C
:100A90001DC0E5FF1EC0E5FF020EDBCF00F0030E18
:100AA000DBCF01F0040EDBCF02F0050EDBCF03F04D
:100AB000060EDBCF04F0070EDBCF05F0080EDBCF10
:100AC00006F0090EDBCF07F00A0EDBCF08F0096A4B
:100AD0000A6A02C00DF00D50800A0DE102500501B6
:100AE0001C6F01501B6F00501A6F050E016E1A0E1D
:100AF000006E800E026E03C0E9FF04C0F3FF0550D4
:100B00006EEC35F00B6E0B50D8B4C0EF08F00B5004
:100B1000250A02E0A7EF08F00C6A0D6A0E6A0F6A58
:100B2000106A0A0E116E126A136A146A200E156E8C
:100B30001668176A2B0E186E032A02E3044A052A68
:100B400003C0E9FF04C0F3FF05506EEC35F0196EE9
:100B5000250A13E11950E56E0250E56E0150E56E6D
:100B60000050E56E8BEC26F0040EE126094A0A2AB5
:100B7000032A02E3044A052ABED71950300A06E1C7
:100B8000300E156E032A02E3044A052A03C0E9FF6A
:100B900004C0F3FF05506EEC35F02D0A06E1010E9E
:100BA000146E032A02E3044A052A03C0E9FF04C0C5
:100BB000F3FF05506EEC35F0200A08E1010E176EC8
:100BC000200E186E032A02E3044A052A03C0E9FF37
:100BD00004C0F3FF05506EEC35F02B0A06E1010E60
:100BE000176E032A02E3044A052A03C0E9FF04C082
:100BF000F3FF05506EEC35F0196E310E195C2BE3E6
:100C00003A0E195C28E203C019F004C01AF005C0BE
:100C10001BF019C0E9FF1AC0F3FF1B506EEC35F052
:100C20001C6E300E1C5C11E33A0E1C5C0EE213507D
:100C30000A0DF3CF1DF01D501C26D00E1C24136E80
:100C4000192A02E31A4A1B2AE4D719C003F01AC072
:100C500004F01BC005F003C0E9FF04C0F3FF05501A
:100C60006EEC35F02E0A2DE1032A02E3044A052A30
:100C7000166A03C019F004C01AF005C01BF019C0B1
:100C8000E9FF1AC0F3FF1B506EEC35F01C6E300EFE
:100C90001C5C11E33A0E1C5C0EE216500A0DF3CFF9
:100CA0001DF01D501C26D00E1C24166E192A02E3BE
:100CB0001A4A1B2AE4D719C003F01AC004F01BC05B
:100CC00005F003C0E9FF04C0F3FF05506EEC35F0FA
:100CD000196E6C0A07E1010E0C6E032A02E3044A46
:100CE000052A09D01950680A06E1010E0E6E032A82
:100CF00002E3044A052A03C0E9FF04C0F3FF0550DC
:100D00006EEC35F0750A06E1010E106E032A02E35F
:100D1000044A052A03C0E9FF04C0F3FF05506EEC46
:100D200035F0196E730A05E1010E0D6E200E156E79
:100D30003FD01950780A03E1100E116E39D01950C6
:100D4000580A05E1100E116E010E126E31D01950C5
:100D5000630A02E1116A2CD019506F0A03E1080EF0
:100D6000116E26D01950660A03E1010E0F6E20D0D5
:100D70001950640A1DE01950690A1AE0105005E084
:100D8000FF0E03260422052213D01950E56E0250EF
:100D9000E56E0150E56E0050E56E8BEC26F0040E1A
:100DA000E126094A0A2A032A02E3044A052AA3D6AD
:100DB0000D5021E00650030F0D6E000E0720196E36
:100DC000000E08201A6E0DC006F019C007F01AC0F8
:100DD00008F0FD0E0D26FF0E19221A220DC0E9FFA4
:100DE00019C0F3FF1A5028EC34F00D6EF3CF19F050
:100DF000F4CF1AF0FDD00F500DE0000E1A6E120E57
:100E0000196E080E0D6E040E0626000E072208222B
:100E10001668EED016680C5023E00650040F0C6ED6
:100E2000000E07200F6E000E08201B6E0CC006F08F
:100E30000FC007F01BC008F0FC0E0C26FF0E0F229F
:100E40001B220CC0E9FF0FC0F3FF1B5091EC33F0E5
:100E50000C6EF3CF0FF0F4CF1BF0E9CF1CF067D08E
:100E60000E502FE00650020F0E6E000E07201D6E72
:100E7000000E08201E6E0EC006F01DC007F01EC03A
:100E800008F0FE0E0E26FF0E1D221E220EC0E9FFE8
:100E90001DC0F3FF1E50E7EC34F00E6E0EC00CF0D8
:100EA0000F6A1B6A1C6A11500A0A03E11050D8B479
:100EB0003ED00C500E6E0EC00CF00F6A1B6A1C6AFE
:100EC00036D00650020F0E6E000E07201D6E000E6B
:100ED00008201E6E0EC006F01DC007F01EC008F0F0
:100EE000FE0E0E26FF0E1D221E220EC0E9FF1DC0A3
:100EF000F3FF1E50E7EC34F00E6EF3CF1DF00EC082
:100F00000CF01DC00FF0E86A1DBEFF0E1B6E1C6EBC
:100F100011500A0A02E110500AE00C500E6E0F50F8
:100F20001D6E0EC00CF01DC00FF01B6A1C6A030E74
:100F3000196EDB0E0D6E800E1A6E1150D8B440D0B3
:100F4000105013E01150E56E030EE56EDB0EE56EFA
:100F50001C50E56E1B50E56E0F50E56E0C50E56EB3
:100F6000F0EC1EF0070EE12612D01150E56E030ED4
:100F7000E56EDB0EE56E1C50E56E1B50E56E0F5006
:100F8000E56E0C50E56E15EC2BF0070EE1261750C0
:100F90002FE00DC0E9FF19C0F3FF1A506EEC35F0D9
:100FA0002D0A26E0FF0E0D2619221A2218C0E5FF91
:100FB0000DC0E9FF19C0F3FF1A50F1EC35F018D05D
:100FC0000CC0E5FF0DC0E9FF19C0F3FF1A50F1ECAA
:100FD00035F00D50010F0C6E000E19200E6E000E34
:100FE0001A20E56A0CC0E9FF0EC0F3FFF1EC35F002
:100FF0000DC00CF019C00EF01AC00FF013C010F0A5
:10100000105010E00CC0E9FF0EC0F3FF0F506EEC63
:1010100035F0176E175006E00C2A02E30E4A0F2A2D
:101020001006EED710C013F014501EE109C00CF0EA
:101030000AC00EF010C00FF00F5010E01550E56E12
:101040000250E56E0150E56E0050E56E8BEC26F027
:10105000040EE1260C4A0E2A0F06EED70CC009F04A
:101060000EC00AF00FC013F016C00CF00DC00DF04A
:1010700019C00EF01AC00FF009C010F00AC015F028
:101080000DC0E9FF0EC0F3FF0F506EEC35F0166E89
:101090001650D8B43ED00CC016F0176A161E171E94
:1010A0001650171005E00CC016F00C06165031E073
:1010B0000DC0E9FF0EC0F3FF0F506EEC35F0116E5E
:1010C000125010E01150E56EA4EC34F0166EE652AA
:1010D000165004E0DF0E1114166E02D011C016F087
:1010E00016C011F01150E56E0250E56E0150E56E2C
:1010F0000050E56E8BEC26F0040EE1260D2A02E38B
:101100000E4A0F2A104A152A1350D8B4B9D713061D
:10111000B7D710C009F015C00AF014502BE010C06A
:101120000CF015C00DF013C00EF00E501FE0200E95
:10113000E56E0250E56E0150E56E0050E56E8BECF9
:1011400026F0040EE1260C4A0D2A0E06EED70B50AF
:10115000E56E0250E56E0150E56E0050E56E8BECD9
:1011600026F0040EE126094A0A2A04D00CC009F030
:101170000DC00AF0032A02E3044A052A7BEF05F0BA
:101180000AC0F3FF0950E4CF1EF0E4CF1DF0E4CF16
:101190001CF0E4CF1BF0E4CF1AF0E4CF19F0E4CF59
:1011A00018F0E4CF17F0E4CF16F0E4CF15F0E4CF59
:1011B00014F0E4CF13F0E4CF12F0E4CF11F0E4CF59
:1011C00010F0E4CF0FF0E4CF0EF0E4CF0DF0E4CF59
:1011D0000CF0E4CF0BF0E4CF0AF0E4CF09F0E4CF59
:1011E00008F0E4CF07F0E4CF06F0E4CF05F0E4CF59
:1011F00004F0E4CF03F0E4CF02F0E4CF01F0E4CF59
:1012000000F0E4CFD9FF12003C4E4F20464C4F4136
:10121000543E0000D9CFE5FFE1CFD9FF00C0E5FF84
:1012200001C0E5FF02C0E5FF03C0E5FF04C0E5FF24
:1012300005C0E5FF06C0E5FF07C0E5FF08C0E5FF04
:1012400009C0E5FF0AC0E5FF0BC0E5FF0CC0E5FFE4
:101250000DC0E5FF020EDBCF00F0030EDBCF01F087
:10126000040EDBCF02F00050090F066E000E0120C5
:10127000076E000E0220086E0B6E07500A6E0650B5
:10128000096EE56A0D0EE56E0B50E56E0A50E56ECF
:101290000950E56E800EE56E030EE56EC00EE56E3C
:1012A00097EC27F0080EE12600C009F001C00AF013
:1012B00002C00BF0E56AE56E0B50E56E0A50E56E74
:1012C0000950E56E800EE56E040EE56E810EE56E4A
:1012D00097EC27F0080EE12681C403F00350010AC1
:1012E00004E00350030A01E019D10301D551036E54
:1012F000D651046E0301C851056EC951096E0550DF
:10130000035C0501236F09500458246F0301D55174
:101310000301C86F0301D6510301C96F0301D751FF
:101320000301CA6F0301D8510301CB6F050123519B
:101330002411D8A47FD034EC32F0036EF3CF04F044
:10134000F4CF05F0E9CF09F00301CD510A6ECE517B
:101350000B6ECF510C6ED0510D6E0A50035E0B50C8
:10136000045A0C50055A0D50095A03500301F36FEB
:101370000450F46F0550F56F7F0E0914F66F0301EA
:10138000CCB125D00301F435F631046EF531036E8E
:10139000043404320332000E04BEFF0E096E056EE3
:1013A00086C40AF00B6A0C6A0D6A0D50800FF36E4A
:1013B0000950800FF35C08E105500C5C05E1045016
:1013C0000B5C02E103500A5C02E20301CC810301E1
:1013D000CCB14AD0C4C303F0C5C304F0C6C305F002
:1013E000C7C309F00301F651800FF36E0950800F57
:1013F000F35C08E10550F55D05E10450F45D02E1A0
:101400000350F35D08E203C0F3F304C0F4F305C036
:10141000F5F309C0F6F30301D9A303D0010E036E5F
:1014200001D0036803C023F50501246B03AE01D08E
:1014300024691AD00301CC91D1C3F3F3D2C3F4F3DE
:10144000D3C3F5F3D4C3F6F30301F3510301C46F1F
:101450000301F4510301C56F0301F5510301C66F88
:101460000301F6510301C76F0301F651800F800F8E
:1014700008E1000EF55D05E1000EF45D02E1010EEC
:10148000F35D06E20301F76BF86BF96BFA6B46D07C
:101490000301F351036EF451046EF551056EF651DC
:1014A000E56E0550E56E0450E56E0350E56E010EE5
:1014B000E56E000EE56AE56AE56A41EC23F0036E2D
:1014C000F3CF04F0F4CF05F0E9CF09F0080EE126E0
:1014D00023C50AF024C50BF0E86A050124BFFF0EFE
:1014E0000C6E0D6E0950E56E0550E56E0450E56E0C
:1014F0000350E56E0D50E56E0C50E56E0B50E56E39
:101500000A50E56EFDEC1BF00301F76FF3CFF8F323
:10151000F4CFF9F3E9CFFAF3080EE126020E040145
:10152000815DD8A045D10301D9A142D10050230F3C
:10153000036E000E0120046E000E0220E56E0450C2
:10154000E56E0350E56E0EEC00F0030EE126005050
:10155000230F036E000E0120046E000E0220056EA4
:10156000020E0326000E0422052203C0E9FF04C078
:10157000F3FF055091EC33F0F3CF04F0F4CF05F016
:10158000E9CF09F00450036E0550046ED890043280
:101590000332D890043203320950E840E840C00BCF
:1015A00004120940E8403F0BE8BAC009056E096A19
:1015B00005BE09680301D551035C0301FB6F0301FC
:1015C000D65104580301FC6F0301D751055803019C
:1015D000FD6F0301D85109580301FE6FD880FEAF9B
:1015E000D89022E30401831D046E821D036E034A1A
:1015F000042AE86A04BEFF0E056E096E0301FE515F
:10160000800FF36E0950800FF35C08E10550FD5D1B
:1016100005E10450FC5D02E10350FB5D05E30301BD
:10162000FB6BFC6BFD6BFE6B0301FE51800F800FAB
:1016300008E1000EFD5D05E1000EFC5D02E1010E1A
:10164000FB5D1EE382C403F083C404F0E86A040176
:1016500083BFFF0E056E800FF36E0301FE51800FF6
:10166000F35C08E1FD51055C05E1FC51045C02E11D
:10167000FB51035C05E30301FB6BFC6BFD6BFE6B35
:101680000401875109E0E86CD8900301FB37FC376F
:10169000FD37FE37010FF9E30301FE51800F800F84
:1016A00008E1000EFD5D05E1800EFC5D02E1000E2B
:1016B000FB5D07E30301FB697F0EFC6FFD6BFE6BB7
:1016C00014D00301FE51800F810F08E1FF0EFD5D74
:1016D00005E1800EFC5D02E1000EFB5D06E2030108
:1016E000FB6B800EFC6FFD69FE690050330F036ECB
:1016F000000E0120046E000E0220056E0301FB5156
:10170000096EFC51E56E0950E56E0550E56E04501A
:10171000E56E0350E56EDCEC0EF0050EE1260401EB
:101720008151030A23E10050330F036E000E0120A4
:10173000046E000E0220056E0B0E0326000E04221E
:10174000052203C0E9FF04C0F3FF055091EC33F01C
:10175000F3CF04F0F4CF05F00450036E0550046E8F
:1017600003500301C06F0450C16F22D00050330FEB
:10177000036E000E0120046E000E0220056E0B0E9B
:101780000326000E0422052203C0E9FF04C0F3FF74
:10179000055091EC33F0F3CF04F0F4CF05F0045092
:1017A000036E0550046E03500301C26F0450C36FF3
:1017B00081C403F00350010A04E00350030A01E06E
:1017C0007DD0C0C303F0C1C304F0E86A0301C1BF08
:1017D000FF0E056E096E0301F751035C0301FB6FF9
:1017E0000301F85104580301FC6F0301F951055836
:1017F0000301FD6F0301FA5109580301FE6F800FC9
:10180000800F08E1000EFD5D05E1800EFC5D02E148
:10181000000EFB5D07E30301FB697F0EFC6FFD6BB0
:10182000FE6B14D00301FE51800F810F08E1FF0E03
:10183000FD5D05E1800EFC5D02E1000EFB5D06E250
:101840000301FB6B800EFC6FFD69FE690050440FC5
:10185000036E000E0120046E000E0220056E0301CF
:10186000FB51096EFC51E56E0950E56E0550E56EC1
:101870000450E56E0350E56EDCEC0EF0050EE1263B
:10188000440E0026000E012202220B0E0026000E3E
:101890000122022200C0E9FF01C0F3FF025091ECD7
:1018A00033F0F3CF01F0F4CF02F00150006E02509C
:1018B000016E00500301C26F0150C36F0850086EE3
:1018C000E56A0D0EE56E800EE56E030EE56EC00E48
:1018D000E56E0850E56E0750E56E0650E56E97EC34
:1018E00027F0080EE126E4CF0DF0E4CF0CF0E4CFB2
:1018F0000BF0E4CF0AF0E4CF09F0E4CF08F0E4CF36
:1019000007F0E4CF06F0E4CF05F0E4CF04F0E4CF35
:1019100003F0E4CF02F0E4CF01F0E4CF00F0E4CF35
:10192000D9FF120025642025640A000000C0E5FFED
:1019300001C0E5FF02C0E5FF03C0E5FF04C0E5FF0D
:1019400005C0E5FF06C0E5FF07C0E5FF08C0E5FFED
:1019500009C0E5FF0AC0E5FF0BC0E5FF0CC0E5FFCD
:10196000006A016A026A040E025CD8B0E8D101C0C4
:1019700003F0012A100E035CD8B0E1D104014B2B17
:10198000100E4B5D01E34B6B04014B39E8441F0B18
:10199000036E046A290E0326050E042203C0E9FF24
:1019A00004C0EAFFEFCF03F0070E4B15046E010EE3
:1019B000056E000E066E045006E0E86CD890053601
:1019C0000636010FFCE3076A03500516075006169A
:1019D00005500610D880E866D890056A053605508F
:1019E000D8A4C1D704014B51020DF450046EF3CFBB
:1019F00003F0E00E0324056E000E0420066E05C001
:101A0000E9FF06C0EAFFEECF05F0EFCF06F00401D4
:101A100048A19DD0200E0324076E030E0420086EFB
:101A200007C0E9FF08C0EAFFEECF07F0EFCF08F0EC
:101A30000650800FF36E0850800FF35C02E10750F0
:101A4000055C03E2056A066A60D0400E0326030EB9
:101A5000042203C0E9FF04C0EAFFEECF03F0EFCF9A
:101A600004F00450800FF36E0650800FF35C02E127
:101A70000550035C04E205683F0E066E46D0075031
:101A8000055C096E085006580A6EE86A0ABEFF0E29
:101A90000B6EE56E0B50E56E0A50E56E0950E56E73
:101AA000E56AE56A400EE56E000EE56AFDEC1BF0A6
:101AB000096EF3CF0AF0F4CF0BF0E9CF0CF0080E6B
:101AC000E1260750035C076E08500458086EE86A68
:101AD00008BEFF0E036EE56E0350E56E0850E56E1E
:101AE0000750E56E0C50E56E0B50E56E0A50E56E42
:101AF0000950E56E41EC23F0036EF3CF04F0080EBD
:101B0000E1260350056E0450066E04014751800F14
:101B1000F36E0650800FF35C02E10550465D03E36F
:101B2000056A066A14D004014651FF08036E3F0E91
:101B30004755046E0650800FF36E0450800FF35C1F
:101B400002E10350055C03E305683F0E066E0401E5
:101B50004B51020DF450046EF3CF03F0000E032638
:101B6000030E042203C0E9FF04C0EAFFEECF03F036
:101B7000EFCF04F00350055C036E04500658046E6A
:101B8000D88004AED89004E3041E036CD8B4042AB1
:101B9000022A04014751800FF36E0450800FF35C5A
:101BA00002E10350465DD8B0DED604014B51020D70
:101BB000F450086EF3CF07F0000E0726030E08223C
:101BC00007C0E9FF08C0EAFF05C0EEFF06C0EFFF4F
:101BD000040148A55AD004014B51020DF450086E7F
:101BE000F3CF07F0600E0724096E030E08200A6E7B
:101BF00009C0E9FF0AC0EAFFEECF0BF0EFCF0CF00F
:101C00000B500C10D8B441D05B0E0726040E0822EE
:101C100007C0E9FF08C0EAFFEECF07F0EFCF08F0FA
:101C20000750055C036E08500658046E03101CE054
:101C30000450800F800F02E1010E035C076A073633
:101C40000C50800F800F02E1010E0B5C0B6A0B360B
:101C500007500B1809E109C0E9FF0AC0EAFF03C0F9
:101C6000EEFF04C0EFFF7FD604014B51020DF4508C
:101C7000046EF3CF03F0600E0326030E042203C0AC
:101C8000E9FF04C0EAFFEE6AEF6A040148A343D00B
:101C900000500EE100C003F0002A046A4C0E032637
:101CA000040E042203C0E9FF04C0EAFF420EEF6EF7
:101CB00000C003F0002A046A4C0E0326040E04221E
:101CC000640E04014B25076E03C0E9FF04C0EAFF60
:101CD00007C0EFFF00C003F0002A046A4C0E032681
:101CE000040E04220650076E03C0E9FF04C0EAFF99
:101CF00007C0EFFF00C003F0002A046A4C0E032661
:101D0000040E04220550076E03C0E9FF04C0EAFF79
:101D100007C0EFFF28D64BC403F00650E56E055010
:101D2000E56EE56A0350E56E000EE56E4F0EE56E5A
:101D3000220EE56EC3EC2FF0070EE12614D602C08A
:101D400001F000501DE0040148A31AD000C002F0C9
:101D5000002A036A4C0E0226040E032202C0E9FF89
:101D600003C0EAFF0A0EEF6E0050E56E800EE56ECE
:101D7000040EE56E4C0EE56E19EC28F0040EE1261B
:101D80000150E4CF0CF0E4CF0BF0E4CF0AF0E4CF45
:101D900009F0E4CF08F0E4CF07F0E4CF06F0E4CF99
:101DA00005F0E4CF04F0E4CF03F0E4CF02F0E4CF99
:101DB00001F0E4CF00F01200D9CFE5FFE1CFD9FF69
:101DC00000C0E5FF01C0E5FF02C0E5FF03C0E5FF7D
:101DD00004C0E5FF05C0E5FF06C0E5FF07C0E5FF5D
:101DE00008C0E5FF09C0E5FF0AC0E5FF0BC0E5FF3D
:101DF000020EDBCF00F0030EDBCF01F0040EDBCFD1
:101E000002F0050EDBCF03F0060EDBCF04F002502C
:101E10000A6E0150096E0050086EE56A110EE56EFB
:101E20000A50E56E0950E56E0850E56E800EE56ECD
:101E3000040EE56E230EE56E97EC27F0080EE12602
:101E400032C405F033C406F0E86A040133BFFF0E64
:101E5000076E0401FF6F0650FE6F0550FD6FFC6BAF
:101E600003C005F004C006F0E86A04BEFF0E076E6A
:101E7000086E23C409F0E56AE56AE56A0950E56E73
:101E80000850E56E0750E56E0650E56E0550E56EAC
:101E9000FDEC1BF00401F86FF3CFF9F4F4CFFAF482
:101EA000E9CFFBF4080EE12604012451D8B4AFD0E9
:101EB0000450800F800F02E1010E035C25E3040152
:101EC0002951800F7C0F08E1000E285D05E1000E0E
:101ED000275D02E1000E265D17E204013151800FFB
:101EE000F36E0401FF51800FF35C0DE1FE5104011C
:101EF000305D09E10401FD5104012F5D04E104019D
:101F0000FC5104012E5D33E3D88004AED890D8A0F4
:101F100043D004012951800F840F08E1000E285D91
:101F200005E1000E275D02E1010E265D35E30401A7
:101F3000FF1D0A6EFE1D096EFD1D046EFC1D036E65
:101F4000032A04E1042A02E1094A0A2A0A50800FFE
:101F5000F36E04013151800FF35C08E13051095CEC
:101F600005E12F51045C02E12E51035C15E205509E
:101F700004012625036E06502721046E07502821F0
:101F8000096E085029210A6E0350266F0450276FEE
:101F90000950286F0A50296F040126390F0B036E70
:101FA0002739046EF00B041A03262851E838F00B89
:101FB000041228390F0B096E29390A6EF00B0A1A20
:101FC0000926F00E0AB60A2624C40BF0E56AE56A73
:101FD000E56A0B50E56E0A50E56E0950E56E045057
:101FE000E56E0350E56EFDEC1BF0036EF3CF04F0DD
:101FF000F4CF09F0E9CF0AF0080EE12603500401FE
:10200000F8270450F9230950FA230A50FB2304014E
:102010002551D8B465D02A51055C0301E76F04014E
:102020002B5106580301E86F04012C510758030196
:10203000E96F04012D5108580301EA6F800F800FEA
:1020400008E1010EE95D05E1000EE85D02E1000E28
:10205000E75D06E30301E769E869E96BEA6B13D022
:102060000301EA51800F810F08E1FF0EE95D05E1F0
:10207000000EE85D02E1000EE75D05E20301E76B9B
:10208000E86BE969EA690301E751E725036EE83582
:10209000046EE935096EEA350A6E25C40BF0E56A6F
:1020A000E56AE56A0B50E56E0A50E56E0950E56E8B
:1020B0000450E56E0350E56EFDEC1BF0036EF3CFAC
:1020C00004F0F4CF09F0E9CF0AF0080EE12603503E
:1020D0000401F8270450F9230950FA230A50FB237E
:1020E000055004012A6F06502B6F07502C6F0850C3
:1020F0002D6F0401FF51800FF36E0401FB51800F1F
:10210000F35C0DE1FA510401FE5D09E10401F951AE
:102110000401FD5D04E10401F8510401FC5D11E2DC
:102120000401FC5104012E6F0401FD5104012F6FC5
:102130000401FE510401306F0401FF510401316FAD
:102140003AD00401FF1D066EFE1D056EFD1D046ED6
:10215000FC1D036E032A04E1042A02E1054A062A53
:102160000401FB51800FF36E0650800FF35C08E111
:102170000550FA5D05E10450F95D02E10350F85D98
:102180000AE2035004012E6F04502F6F0550306F88
:102190000650316F10D00401F85104012E6F040174
:1021A000F95104012F6F0401FA510401306F040149
:1021B000FB510401316FE56A110EE56E800EE56E8C
:1021C000040EE56E230EE56E0250E56E0150E56EDD
:1021D0000050E56E97EC27F0080EE126E4CF0BF0F7
:1021E000E4CF0AF0E4CF09F0E4CF08F0E4CF07F041
:1021F000E4CF06F0E4CF05F0E4CF04F0E4CF03F041
:10220000E4CF02F0E4CF01F0E4CF00F0E4CFD9FF57
:10221000120000C0E5FF01C0E5FF02C0E5FF03C0FA
:10222000E5FF04C0E5FF05C0E5FF06C0E5FF07C008
:10223000E5FF08C0E5FF09C0E5FF0AC0E5FFC2A24F
:1022400004D0040149511EEF13F004014A51D8B4DF
:102250001DD104014951020DF450016EF3CF00F07D
:10226000E00E0026000E012200C0E9FF01C0EAFFD7
:10227000EECF00F0EFCF01F0E80E4925026E036AC1
:10228000040E032202C0E9FF03C0EAFFEFCF02F011
:102290000250FF0A01E152D002380F0B036E920E7A
:1022A0000324046E056A0F0E0522066A920E0326A9
:1022B0000F0E062203C0E9FF06C0EAFFEFCF03F0CE
:1022C000070E0214066E010E076E065005E0E86C5C
:1022D000D8900736010FFDE3071C066E031604C0F5
:1022E000E9FF05C0EAFF03C0EFFF02380F0B036EE2
:1022F000890E0324046E056A0F0E0522066A890EF4
:1023000003260F0E062203C0E9FF06C0EAFFEFCF47
:1023100003F0070E0214066E010E076E065005E06C
:10232000E86CD8900736010FFDE3071C066E031614
:1023300004C0E9FF05C0EAFF03C0EFFF04014951F3
:10234000020DF450046EF3CF03F0E00E0326000EEE
:10235000042200380F0B056E0138066EF00B061ACA
:10236000052606320532F80E06B406260550005C36
:10237000056E06500158066EC3CF07F0086A075075
:10238000052608500622C4CF07F0086A07500A6ED7
:10239000096A095005260A50062203C0E9FF04C055
:1023A000EAFF05C0EEFF06C0EFFF04014551010A38
:1023B00001E06AD004014951020DF450046EF3CFDC
:1023C00003F0E00E0324056E000E0420066E05C027
:1023D000E9FF06C0EAFFEECF00F0EFCF01F0200EDC
:1023E0000326030E042203C0E9FF04C0EAFFEECF78
:1023F00005F0EFCF06F09C0E0526D8A0060601508A
:10240000800FF36E0650800FF35C02E10550005C14
:102410000EE20050640F056E000E0120066E03C030
:10242000E9FF04C0EAFF05C0EEFF06C0EFFF0401AC
:102430004951020DF450046EF3CF03F0400E032611
:10244000030E042203C0E9FF04C0EAFFEECF05F04B
:10245000EFCF06F0640E0526D8B0062A0650800F8E
:10246000F36E0150800FF35C02E10050055C0CE25A
:102470009C0E0026D8A0010603C0E9FF04C0EAFFB5
:1024800000C0EEFF01C0EFFF04014A6B0401492BBD
:10249000100E495D01E3496B04014939E8441F0B03
:1024A000006E016A290E0026050E012200C0E9FF18
:1024B00001C0EAFFEFCF00F0070E4915016E010ED3
:1024C000036E000E046E015006E0E86CD8900336EF
:1024D0000436010FFCE3056A00500316055004168C
:1024E00003500410D880E866D890036A033603507E
:1024F000D8A4A2D0A00E04014925006E016A030EE3
:10250000012200C0E9FF01C0EAFFEFCF00F0004464
:10251000E844FC0B016E0128C26EE80E4925006EEE
:10252000016A040E012200C0E9FF01C0EAFFEFCFFB
:1025300002F00250FF0A01E17BD002380F0B006E5F
:10254000920E0024016E036A0F0E0322046A920E9B
:1025500000260F0E042200C0E9FF04C0EAFFEFCFFF
:1025600000F0070E0214046E010E056E045005E023
:10257000E86CD8900536010FFDE30550001201C04C
:10258000E9FF03C0EAFF00C0EFFF380E006E0F0E38
:10259000016E02380F0B036E046A035000260450CC
:1025A0000122380E056E0F0E066E055003260650EA
:1025B000042203C0E9FF04C0EAFFEFCF03F0070ED7
:1025C0000216010E046E025005E0E86CD890043645
:1025D000010FFDE30450031200C0E9FF01C0EAFF50
:1025E00003C0EFFF0F0145830000000045930F017A
:1025F00044930BC0E5FFF2CF0BF0F29E4481000044
:1026000000000000000000000000000000000000CA
:1026100000000000000000000000000000000000BA
:1026200000000000000044910BBEF28EE4CF0BF0DE
:10263000C282010E04014A6F04014951E4CF0AF03D
:10264000E4CF09F0E4CF08F0E4CF07F0E4CF06F0E0
:10265000E4CF05F0E4CF04F0E4CF03F0E4CF02F0E0
:10266000E4CF01F0E4CF00F01200D9CFE5FFE1CFD5
:10267000D9FF00C0E5FF01C0E5FF02C0E5FF03C0D0
:10268000E5FF04C0E5FF05C0E5FF06C0E5FF07C0A4
:10269000E5FF08C0E5FF09C0E5FF0AC0E5FF020E3F
:1026A000DBCF00F0030EDBCF01F0040EDBCF02F036
:1026B000036A046A5EEC32F0056EFE0A01E077D030
:1026C00031EC2DF05EEC32F0066E030E065CD8A005
:1026D0005AD0060E065CD8B056D0FD0E0624076E02
:1026E000FA6AFB6A0734FA36E834FA36FC0BFE0F56
:1026F000E56E260EFA22000EFB22E450F96E85EFFD
:1027000013F097EF13F0B0EF13F00050090F076EBE
:10271000000E0120086E000E022007C0E9FF08C06D
:10272000F3FFE7EC34F0036EF3CF04F02CD000504D
:10273000090F076E000E0120086E000E0220096EC0
:10274000020E0726000E0822092207C0E9FF08C072
:10275000F3FF0950E7EC34F0036EF3CF04F013D02D
:102760000050070F076E000E0120086E000E0220B9
:1027700007C0E9FF08C0F3FF6EEC35F0010B076EF0
:1027800007C003F0046A06C007F00450E56E03506A
:10279000E56EE56A0750E56E000EE56E190EE56E12
:1027A000240EE56EC3EC2FF0070EE12640D1070E94
:1027B000055CD8B03CD1FA6AFB6A0534FA36E834D5
:1027C000FA36FC0BD40FE56E270EFA22000EFB2220
:1027D000E450F96EF8EF13F013EF14F025EF14F056
:1027E00037EF14F069EF14F09FEF14F0BEEF14F020
:1027F0000050230F036E000E0120046E000E022015
:10280000E56E0450E56E0350E56E32EC18F0030EF1
:10281000E126020EE56E00C0E9FF01C0F3FF0250A1
:10282000F1EC35F004D10050330F036E000E01209F
:10283000046E000E0220E56E0450E56E0350E56E56
:10284000BFEC1AF0030EE126F2D00050440F036EE5
:10285000000E0120046E000E0220E56E0450E56EAD
:102860000350E56EBFEC1AF0030EE126E0D00050F5
:10287000090F036E000E0120046E000E0220056E8B
:102880005EEC32F00A6E096AE56A0AC0F4FF03C022
:10289000E9FF04C0F3FF0550B8EC35F05EEC32F010
:1028A000086A092608500A2209C0E5FF0AC0F4FF99
:1028B00003C0E9FF04C0F3FF0550B8EC35F0010E8A
:1028C000E56E00C0E9FF01C0F3FF0250F1EC35F006
:1028D000AED00050090F036E000E0120046E000EF2
:1028E0000220056E020E0326000E042205225EEC75
:1028F00032F00A6E096AE56A0AC0F4FF03C0E9FF14
:1029000004C0F3FF0550B8EC35F05EEC32F0086A15
:10291000092608500A2209C0E5FF0AC0F4FF03C0D7
:10292000E9FF04C0F3FF0550B8EC35F0E56A00C0DC
:10293000E9FF01C0F3FF0250F1EC35F078D0005010
:10294000070F036E000E0120046E000E0220056EBC
:102950005EEC32F0010BF46E03C0E9FF04C0F3FF3C
:1029600005506EEC35F0FE0BF410E56E03C0E9FF88
:1029700004C0F3FF0550F1EC35F059D05EEC32F0B5
:10298000066E0050160F036E000E0120046E000E3E
:102990000220056E03500C0F076E000E0420086E17
:1029A000000E0520096E0650D880E866D8900A6AA5
:1029B0000A360A50D880E866D8900A6A0A360A5061
:1029C000010BF46E07C0E9FF08C0F3FF09506EEC7D
:1029D00035F0FE0BF410E56E07C0E9FF08C0F3FF09
:1029E0000950F1EC35F00650010A21E1080E0326EA
:1029F000000E04220522E56AF46AF66AF76A03C04B
:102A0000E9FF04C0F3FF05505DEC35F0230E00260E
:102A1000000E01220222E56AE56A0250E56E0150CD
:102A2000E56E0050E56EEBEC24F0050EE126E4CFF8
:102A30000AF0E4CF09F0E4CF08F0E4CF07F0E4CFE8
:102A400006F0E4CF05F0E4CF04F0E4CF03F0E4CFE8
:102A500002F0E4CF01F0E4CF00F0E4CFD9FF1200A0
:102A600000C0E5FF01C0E5FF02C0E5FF03C0E5FFD0
:102A700004C0E5FF05C0E5FF5EEC24F009EC11F0B1
:102A80005EEC24F070EC21F034EC32F0006EF3CF09
:102A900001F0F4CF02F0E9CF03F00F013351005EF3
:102AA0003451015A3551025A3651035A039E3F0E92
:102AB000035C08E1FF0E025C05E1FF0E015C02E130
:102AC000FF0E005CD8B06BD134EC32F0F3CF01F0E4
:102AD000F4CF02F0E9CF03F0880F0F01336F130E2C
:102AE0000120346F000E0220356F000E0320366F78
:102AF00009EC1EF0006E0050D8B496EC0CF0000EFD
:102B0000E56AD6EC32F005011D6FF3CF1EF5E652F3
:102B1000010E04013C5D02E1900E3B5D04E2040104
:102B20003B3F01D03C2B010E04013C5D02E1900EC5
:102B30003B5D10E205011E51800F7B0F02E11E0E6E
:102B40001D5D08E305011E51800F060F02E1E20E34
:102B50001D5D04E304019E6B9F6B936B06C0E5FF54
:102B6000F2CF06F0F29E0401A9510301CD6F0401DA
:102B7000AA510301CE6F0401AB510301CF6F0401D1
:102B8000AC510301D06F0401AD510301D16F0401B9
:102B9000AE510301D26F0401AF510301D36F0401A1
:102BA000B0510301D46F0401B1510301D56F040189
:102BB000B2510301D66F0401B3510301D76F040171
:102BC000B4510301D86F0401B5510301D96F040159
:102BD000AD6BAE6BAF6BB06B06BEF28EE4CF06F0A2
:102BE000800EE56E040EE56E930EE56E0AEC09F0BC
:102BF000030EE1269EC425F59FC426F50501265146
:102C0000800F7C0F02E1000E255D04E305012569BC
:102C1000030E266F05012651800F840F02E1010E7D
:102C2000255D05E2010E0501256FFC0E266F0501ED
:102C30002651800F800F02E1010E255D10E3050192
:102C40002651800FF36E04019751800FF35C03E16E
:102C500096510501255D03E20501256B266BD880A1
:102C6000050126AFD89015E30401971D016E961D4E
:102C7000006E004A012A0150800FF36E05012651B3
:102C8000800FF35C02E12551005C03E20501256B36
:102C9000266B04019AA309D0B5A507D0D8800501F9
:102CA00026AFD89002E3256B266BD880050126AFAE
:102CB000D89007E32551FF0F006E030E2621016E09
:102CC00004D025C500F026C501F000C027F501C0DD
:102CD00028F505012751020BE840010BE838E844CC
:102CE000F46E6650DF0BF410666E2751010B010B7A
:102CF000E838F46E6650EF0BF410666E2835283114
:102D0000016E2731006E0134013200320050676ECF
:102D1000D880050126AFD89002E3898E01D0899E24
:102D20005EEC24F03AC400F004013A07005037E1A9
:102D300039C43AF4006A0401B5B1002A016AB74106
:102D4000E8403F0BE8BAC009026E036A02BE03689E
:102D5000E86A03BEFF0E046E056E0150E56E00507A
:102D6000E56E9F51E56E9E51E56E0550E56E04508F
:102D7000E56E0350E56E0250E56EB451E56EB35159
:102D8000E56EB251E56EB151E56E000EE56E410E95
:102D9000E56E280EE56EC3EC2FF00F0EE126E4CFB2
:102DA00005F0E4CF04F0E4CF03F0E4CF02F0E4CF89
:102DB00001F0E4CF00F0120000C0E5FF01C0E5FF24
:102DC00002C0E5FF03C0E5FF05C0E5FF29EC36F0D2
:102DD000B6EC2EF0330ECD6E9D809F808A96899E34
:102DE0008B80040189859396929E9490040192951C
:102DF0009283800E006E040E016E0F0E036E380E6D
:102E00000026035001220F0E036E800E005E035059
:102E1000015A800E026E040E036E0F0E056E380E00
:102E20000226055003220F0E056E800E025E05502D
:102E3000035A02C0E9FF03C0EAFFEFCF02F002929B
:102E400000C0E9FF01C0EAFF02C0EFFF9486820ED6
:102E5000006E0F0E016E0F0E036E380E002603502B
:102E600001220F0E036E800E005E0350015A820E87
:102E7000026E0F0E036E0F0E056E380E0226055001
:102E800003220F0E056E800E025E0550035A02C02B
:102E9000E9FF03C0EAFFEFCF02F0029600C0E9FFAE
:102EA00001C0EAFF02C0EFFF9482820E006E0F0E97
:102EB000016E0F0E036E380E0026035001220F0E16
:102EC000036E800E005E0350015A820E026E0F0EDA
:102ED000036E0F0E056E380E0226055003220F0EEC
:102EE000056E800E025E0550035A02C0E9FF03C062
:102EF000EAFFEFCF02F0029200C0E9FF01C0EAFF53
:102F000002C0EFFF0C0E666E669A6698676A04014F
:102F1000936B020E946F956B0A0E966F976B100E63
:102F2000986F070E996F9A919A83800EE56E040E42
:102F3000E56EB60EE56EDEEC2CF0030EE126800E9B
:102F4000E56E040EE56ED70EE56EADEC22F0030ED5
:102F5000E126800EE56E040EE56EC60EE56EADEC64
:102F600022F0030EE1260401B16BB26BB36BB46BBC
:102F7000B591B5959C6B9D6B9E6B9F6BA46BA56B80
:102F8000A66BA76B320E966F976B080EBC6F070E81
:102F9000BD6FB00EC26F040EC36FB00EC46F040ECF
:102FA000C56F960EC66F020EC76FC86BD569030E4C
:102FB000D66F14EC27F09488820E006E0F0E016E0F
:102FC0000F0E036E380E0026035001220F0E036E03
:102FD000800E005E0350015A820E026E0F0E036EC9
:102FE0000F0E056E380E0226055003220F0E056ED9
:102FF000800E025E0550035A02C0E9FF03C0EAFFDB
:10300000EFCF02F0028800C0E9FF01C0EAFF02C072
:10301000EFFF100EE56E000EE56AB2EC2AF0E65204
:10302000E652B6EC2EF034EC32F0F3CF01F0F4CFF0
:1030300002F0E9CF03F0880F0F01336F130E012068
:10304000346F000E0220356F000E0320366FE4CF80
:1030500005F0E4CF03F0E4CF02F0E4CF01F0E4CFD9
:1030600000F01200D9CFE5FFE1CFD9FF00C0E5FFA6
:1030700001C0E5FF02C0E5FF03C0E5FF04C0E5FFB6
:1030800005C0E5FF06C0E5FF07C0E5FF08C0E5FF96
:1030900009C0E5FF0AC0E5FF0BC0E5FF020EDBCF6C
:1030A00000F0030EDBCF01F0040EDBCF02F0036A69
:1030B000046A5EEC32F0056EFE0A01E063D031EC8A
:1030C0002DF05EEC32F0066E06500AE00650010A62
:1030D00019E00650020A28E006500A0A37E040D0FC
:1030E0000050060F076E000E0120086E000E022031
:1030F00007C0E9FF08C0F3FFE7EC34F0036EF3CF3D
:1031000004F02ED000500C0F076E000E0120086E48
:10311000000E022007C0E9FF08C0F3FFE7EC34F01F
:10312000036EF3CF04F01CD000500E0F076E000E9C
:103130000120086E000E022007C0E9FF08C0F3FF5F
:10314000E7EC34F0036EF3CF04F00AD000C0E9FFDF
:1031500001C0F3FF0250E7EC34F0036EF3CF04F04C
:103160000450E56E0350E56EE56A0650E56E000E0C
:10317000E56E5A0EE56E5A0EE56EC3EC2FF0070EA3
:10318000E126A1D005500CE00550010A32E00550BF
:10319000020A01E157D005500A0A01E17CD093D020
:1031A0000050060F056E000E0120066E000E022074
:1031B000076E5EEC32F00B6E0A6AE56A0BC0F4FF34
:1031C00005C0E9FF06C0F3FF0750B8EC35F05EEC30
:1031D00032F0096A0A2609500B220AC0E5FF0BC02B
:1031E000F4FF05C0E9FF06C0F3FF0750B8EC35F067
:1031F0006AD000500C0F056E000E0120066E000E06
:103200000220076E5EEC32F00B6E0A6AE56A0BC0B4
:10321000F4FF05C0E9FF06C0F3FF0750B8EC35F036
:103220005EEC32F0096A0A2609500B220AC0E5FF5B
:103230000BC0F4FF05C0E9FF06C0F3FF0750B8EC70
:1032400035F041D000500E0F056E000E0120066EC5
:10325000000E0220076E5EEC32F00B6E0A6AE56A21
:103260000BC0F4FF05C0E9FF06C0F3FF0750B8EC40
:1032700035F05EEC32F0096A0A2609500B220AC0CA
:10328000E5FF0BC0F4FF05C0E9FF06C0F3FF0750E0
:10329000B8EC35F018D05EEC32F0046E036A5EECE8
:1032A00032F0066A0326065004220450E56E0350ED
:1032B000E56E0250E56E0150E56E0050E56E6AEC79
:1032C00031F0050EE126E4CF0BF0E4CF0AF0E4CFB5
:1032D00009F0E4CF08F0E4CF07F0E4CF06F0E4CF44
:1032E00005F0E4CF04F0E4CF03F0E4CF02F0E4CF44
:1032F00001F0E4CF00F0E4CFD9FF1200800EE56EBC
:10330000030EE56E400EE56E83EC2DF0030EE12614
:10331000800EE56E030EE56E200EE56E83EC2DF05B
:10332000030EE126800EE56E030EE56E420EE56E9D
:1033300083EC2DF0030EE126800EE56E030EE56EA4
:10334000220EE56E83EC2DF0030EE126800EE56E75
:10335000030EE56E440EE56E83EC2DF0030EE126C0
:10336000800EE56E030EE56E240EE56E83EC2DF007
:10337000030EE126800EE56E030EE56E460EE56E49
:1033800083EC2DF0030EE126800EE56E030EE56E54
:10339000260EE56E83EC2DF0030EE126800EE56E21
:1033A000030EE56E480EE56E83EC2DF0030EE1266C
:1033B000800EE56E030EE56E280EE56E83EC2DF0B3
:1033C000030EE126800EE56E030EE56E4A0EE56EF5
:1033D00083EC2DF0030EE126800EE56E030EE56E04
:1033E0002A0EE56E83EC2DF0030EE126800EE56ECD
:1033F000030EE56E4C0EE56E83EC2DF0030EE12618
:10340000800EE56E030EE56E2C0EE56E83EC2DF05E
:10341000030EE126800EE56E030EE56E4E0EE56EA0
:1034200083EC2DF0030EE126800EE56E030EE56EB3
:103430002E0EE56E83EC2DF0030EE126800EE56E78
:10344000030EE56E500EE56E83EC2DF0030EE126C3
:10345000800EE56E030EE56E300EE56E83EC2DF00A
:10346000030EE126800EE56E030EE56E520EE56E4C
:1034700083EC2DF0030EE126800EE56E030EE56E63
:10348000320EE56E83EC2DF0030EE126800EE56E24
:10349000030EE56E540EE56E83EC2DF0030EE1266F
:1034A000800EE56E030EE56E340EE56E83EC2DF0B6
:1034B000030EE126800EE56E030EE56E560EE56EF8
:1034C00083EC2DF0030EE126800EE56E030EE56E13
:1034D000360EE56E83EC2DF0030EE126800EE56ED0
:1034E000030EE56E580EE56E83EC2DF0030EE1261B
:1034F000800EE56E030EE56E380EE56E83EC2DF062
:10350000030EE126800EE56E030EE56E5A0EE56EA3
:1035100083EC2DF0030EE126800EE56E030EE56EC2
:103520003A0EE56E83EC2DF0030EE126800EE56E7B
:10353000030EE56E5C0EE56E83EC2DF0030EE126C6
:10354000800EE56E030EE56E3C0EE56E83EC2DF00D
:10355000030EE126800EE56E030EE56E5E0EE56E4F
:1035600083EC2DF0030EE126800EE56E030EE56E72
:103570003E0EE56E83EC2DF0030EE1261200D9CF4E
:10358000E5FFE1CFD9FF00C0E5FF01C0E5FF02C0C4
:10359000E5FF03C0E5FF04C0E5FF05C0E5FF06C089
:1035A000E5FF07C0E5FF08C0E5FF020EDBCF00F036
:1035B000030EDBCF01F0040EDBCF02F0036A046AD6
:1035C0005EEC32F0056EFE0A01E075D031EC2DF0B4
:1035D0005EEC32F0066E040E065CD8B05AD0FA6A81
:1035E000FB6A0634FA36E834FA36FC0BFC0FE56E5B
:1035F000350EFA22000EFB22E450F96E06EF1BF0A6
:1036000012EF1BF025EF1BF038EF1BF000C0E9FFB5
:1036100001C0F3FF02506EEC35F0076E07C003F0F7
:10362000046A37D00050010F076E000E0120086EAB
:10363000000E022007C0E9FF08C0F3FF6EEC35F072
:10364000076E07C003F0046A24D00050020F076E13
:10365000000E0120086E000E022007C0E9FF08C01E
:10366000F3FF6EEC35F0076E07C003F0046A11D06B
:1036700000500F0F076E000E0120086E000E022092
:1036800007C0E9FF08C0F3FFE7EC34F0036EF3CFA7
:1036900004F00450E56E0350E56EE56A0650E56EF1
:1036A000000EE56E460EE56E7A0EE56EC3EC2FF069
:1036B000070EE1268DD0040E055CD8B089D0FA6AD9
:1036C000FB6A0534FA36E834FA36FC0BDC0FE56E9B
:1036D000360EFA22000EFB22E450F96E76EF1BF054
:1036E00083EF1BF0AEEF1BF0C4EF1BF05EEC32F08B
:1036F000036E03C0E5FF00C0E9FF01C0F3FF025005
:10370000F1EC35F065D00050010F036E000E012082
:10371000046E000E0220056E5EEC32F0066E06C0EE
:10372000E5FF03C0E9FF04C0F3FF0550F1EC35F0FD
:103730000650D8A44DD00050030F036E000E012098
:10374000046E000E0220E56AF46AF66AF76A03C0A6
:10375000E9FF04C0F3FF5DEC35F03AD00050020FF2
:10376000036E000E0120046E000E0220056E5EEC5A
:1037700032F0066E06C0E5FF03C0E9FF04C0F3FFA8
:103780000550F1EC35F024D00F0E0026000E01227A
:1037900002225EEC32F0066E056AE56A06C0F4FFAE
:1037A00000C0E9FF01C0F3FF0250B8EC35F05EEC59
:1037B00032F0046A05260450062205C0E5FF06C063
:1037C000F4FF00C0E9FF01C0F3FF0250B8EC35F090
:1037D000E4CF08F0E4CF07F0E4CF06F0E4CF05F043
:1037E000E4CF04F0E4CF03F0E4CF02F0E4CF01F043
:1037F000E4CF00F0E4CFD9FF1200D9CFE5FFE1CF4D
:10380000D9FF00C0E5FF01C0E5FF02C0E5FF03C02E
:10381000E5FF04C0E5FF05C0E5FF06C0E5FF07C002
:10382000E5FF020EDBCF00F0030EDBCF01F0040E4C
:10383000DBCF02F0050EDBCF03F0060EDBCF04F08A
:10384000070EDBCF05F0080EDBCF06F0090EDBCF4D
:1038500007F000500501006F0150016F0250026F28
:103860000350036F04500501046F0550056F0650A7
:10387000066F0750076F0501005105010603F4CFDD
:1038800001F0F3CF00F0005005010A6F01500B6FFB
:103890000501005105010403F4CF01F0F3CF00F05E
:1038A00000500501086F0150096F05010351050122
:1038B0000403F3CF00F005010B51002600500B6FFD
:1038C0000501025105010503F3CF01F00150002667
:1038D000005005010B6F0501025105010403F4CFEF
:1038E00001F0F3CF00F005010A5100260B5101222F
:1038F00000500A6F01500B6F0501015105010503CE
:10390000F4CF03F0F3CF02F002500026035001225F
:10391000005005010A6F01500B6F050101510501AF
:103920000603F3CF00F0005005010F6F05010151B0
:1039300005010403F4CF01F0F3CF00F000500501BE
:103940000D6F01500E6F0501005105010703F3CF04
:1039500000F000500501136F05010051050105033A
:10396000F4CF01F0F3CF00F000500501116F0150CA
:10397000126F05010C6B0501106B05010C5105015F
:103980000825006E05010D5105010921016E050193
:103990000E5105010A21026E05010F5105010B218F
:1039A000036E0050086F0150096F02500A6F0350F8
:1039B0000B6F0501105105010825006E050111511D
:1039C00005010921016E0501125105010A21026E4E
:1039D0000501135105010B21036E03C0E9FF02C06D
:1039E000F4FF01C0F3FF0050E4CF07F0E4CF06F08E
:1039F000E4CF05F0E4CF04F0E4CF03F0E4CF02F02D
:103A0000E4CF01F0E4CF00F0E4CFD9FF120000C012
:103A1000E5FF01C0E5FF04014251D8B4F5D0A3A8E9
:103A20001DD0A4A81BD0050139510501361905E1A7
:103A30009CEC35F00501366BE7D0000E0501392509
:103A4000006E016A040E012200C0E9FF01C0EAFF16
:103A5000EFCF32F5392B32C573FFD6D0A4AAD4D01C
:103A600071A205D0050137819CEC35F0CDD071A451
:103A700005D0050137839CEC35F0C6D071A03ED04F
:103A800074CF32F5800E040143110501321904E1AF
:103A9000050137897196B8D00501325104E03251E1
:103AA0000401431927E10501379971960501325147
:103AB00003E00501379702D00501378732C53BF592
:103AC00034C53CF50501340505013D6F600E050167
:103AD0003C25006E016A000E012200C0E9FF01C012
:103AE000EAFF32C5EFFF3C2B3C51800A02E10501A1
:103AF0003C6B8AD005013799718686D074CF32F538
:103B0000050137A919D0800E0401431105013219AE
:103B100011E1899AA39A71980501365104E1736AFB
:103B20009CEC35F007D000C473FF010E0501396F1E
:103B3000A3886AD0718668D00501325105013B2700
:103B400005013C5105013D191BE105013B510CE10B
:103B50003CC534F5050137B712D0899AA39A7198FC
:103B6000736A9CEC35F00BD00501378537B707D069
:103B7000899AA39A7198010E736E9CEC35F044D02B
:103B800005013C510501351908E1050135510501D3
:103B9000341903E09CEC35F037D034C500F0016AED
:103BA000004A012AE56A800EE56E0150E56E00507C
:103BB000E56E0BEC29F0006E040EE12600500501C5
:103BC000336F05013C190CE11F0E0501321505018B
:103BD0003D6F3D2B3D2B0501345105013D273D9F98
:103BE0003CC500F005013C2B016A600E0026000E6A
:103BF000012200C0E9FF01C0EAFF32C5EFFF3C51DE
:103C0000800A02E105013C6BE4CF01F0E4CF00F053
:103C1000120000C0E5FF01C0E5FF02C0E5FF03C0E0
:103C2000E5FF04C0E5FF05C0E5FF06C0E5FF07C0EE
:103C3000E5FF08C0E5FF09C0E5FF0AC0E5FF006A2F
:103C4000016A040E015CD8B0B3D0B00E040159254E
:103C5000026E036A030E032202C0E9FF03C0EAFFFB
:103C6000EFCF02F00250FF0A01E19BD00401593965
:103C7000E8441F0B026E2D0E0224036E046A050E2B
:103C8000042203C0E9FF04C0EAFFEFCF03F0070EF0
:103C90005915046E010E056E000E066E045006E006
:103CA000E86CD89005360636010FFCE3076A05502C
:103CB00003160650071603500710D880E866D89000
:103CC000036A03360350D880E866D890036A033647
:103CD000076A2B0E0226050E072202C0E9FF07C065
:103CE000EAFFEFCF08F008C009F00A6A095005168C
:103CF0000A50061605500610D880E866D890056A66
:103D000005360550D880E866D890056A0536035018
:103D1000051801E146D0035012E0010E056E045073
:103D200005E0E86CD8900536010FFDE30550081258
:103D300002C0E9FF07C0EAFF08C0EFFF17D002C0CA
:103D4000E9FF07C0EAFFEFCF05F0010E066E045051
:103D500005E0E86CD8900636010FFDE3061C051659
:103D600002C0E9FF07C0EAFF05C0EFFF035003E10F
:103D7000036A032A01D0036A59C404F0E56A0350B8
:103D8000E56EE56A0450E56E000EE56E5D0EE56ECB
:103D9000EE0EE56EC3EC2FF0070EE126012A01C0FE
:103DA00000F00401592B100E595DD8A04AD7596B69
:103DB0000050E4CF0AF0E4CF09F0E4CF08F0E4CFFC
:103DC00007F0E4CF06F0E4CF05F0E4CF04F0E4CF51
:103DD00003F0E4CF02F0E4CF01F0E4CF00F01200F2
:103DE000D9CFE5FFE1CFD9FF00C0E5FF01C0E5FF76
:103DF00002C0E5FF03C0E5FF04C0E5FF05C0E5FF25
:103E000006C0E5FF07C0E5FF08C0E5FF09C0E5FF04
:103E10000AC0E5FF0BC0E5FF0CC0E5FF0DC0E5FFE4
:103E20000EC0E5FF0FC0E5FF020EDBCF00F0030E72
:103E3000DBCF01F0040EDBCF02F0050EDBCF03F089
:103E4000060EDBCF04F0070EDBCF05F0080EDBCF4C
:103E500006F0200E076E086A06C009F00A6A0B6AAF
:103E60000C6AE56AE56AE56A0950E56E0350E56E9D
:103E70000250E56E0150E56E0050E56E10EC22F048
:103E80000D6E080EE126300E0D263A0E0D5C05E390
:103E90000D500E6E270E0E240D6EFF0E0726082203
:103EA000800E07240E6E030E08200F6E0EC0E9FF71
:103EB0000FC0EAFF0DC0EFFF0C50E56E0B50E56E32
:103EC0000A50E56E0950E56E0350E56E0250E56E4E
:103ED0000150E56E0050E56E41EC23F0006EF3CF2B
:103EE00001F0F4CF02F0E9CF03F0080EE126005014
:103EF000011002100310D8A4AFD707C000F008C00B
:103F000001F004C002F005C003F000C004F001C0DD
:103F100005F0004A012A800E0426030E052204C083
:103F2000E9FF05C0EAFFEFCF04F002C0E9FF03C0DC
:103F3000EAFF04C0EFFF024A032A000E015C02E11F
:103F4000200E005CE2E302C0E9FF03C0EAFF000EBE
:103F5000EF6AE4CF0FF0E4CF0EF0E4CF0DF0E4CF42
:103F60000CF0E4CF0BF0E4CF0AF0E4CF09F0E4CF9B
:103F700008F0E4CF07F0E4CF06F0E4CF05F0E4CF9B
:103F800004F0E4CF03F0E4CF02F0E4CF01F0E4CF9B
:103F900000F0E4CFD9FF120000C0E5FF01C0E5FF4B
:103FA00002C0E5FF03C0E5FF9EA0B5D0006A82B65F
:103FB000002A0050010BF46E04019B51FE0BF4101B
:103FC0009B6F040180B308D00401B16BB26BB36B7B
:103FD000B46BB581B58502D00401B595006A0401C2
:103FE0009BB1002A016A9BB5012A0050011801E12A
:103FF0008ED0006A04019BB1002A0050010BE844F6
:10400000E844F46E9B51FB0BF4109B6FA951AD5D1E
:10401000006EAA51AE59016EAB51AF59026EAC5150
:10402000B059036E0050AD6F0150AE6F0250AF6FCC
:104030000350B06F04018A510401A96F04018B5130
:104040000401AA6F04018C510401AB6F04018D516E
:104050000401AC6F04018A5100268B5101228C515E
:1040600002228D51032200500401AD6F0150AE6F4A
:104070000250AF6F0350B06F006A82B2002A005046
:10408000010BE844F46E9B51FD0BF4109B6F006A2A
:104090009BB1002A016A9BB3012A0150D880E866CF
:1040A000D890016A01360150001A005019E0B1C4DD
:1040B00000F0B2C401F0B3C402F0B4C403F0002AAB
:1040C00004E3012A02E3024A032A00500401B16F0B
:1040D0000150B26F0250B36F0350B46FB58317D065
:1040E000B1C400F0B2C401F0B3C402F0B4C403F030
:1040F000FF0E002601220222032200500401B16FAC
:104100000150B26F0250B36F0350B46FB593CF68D4
:10411000EB0ECE6E9E90E4CF03F0E4CF02F0E4CF3E
:1041200001F0E4CF00F0120043204D4320256C64E1
:1041300020256C642025642025640A004300256343
:104140000000D9CFE5FFE1CFD9FF00C0E5FF01C0F6
:10415000E5FF02C0E5FF03C0E5FF04C0E5FF05C0C1
:10416000E5FF06C0E5FF07C0E5FF08C0E5FF09C0A1
:10417000E5FF0AC0E5FF0BC0E5FF0CC0E5FF0DC081
:10418000E5FF020EDBCF00F0030EDBCF01F0040EE3
:10419000DBCF02F0050EDBCF03F0060EDBCF04F021
:1041A000070EDBCF05F0080EDBCF06F0090EDBCFE4
:1041B00007F0D88003AED890086A083608500FE0A0
:1041C000031C0C6E021C0B6E011C0A6E001C096E97
:1041D000092A0DE10A2A0BE10B4A0C2A08D000C07B
:1041E00009F001C00AF002C00BF003C00CF0D88047
:1041F00007AED890006A003600500FE0071C0D6E25
:10420000061C036E051C026E041C016E012A0DE1E2
:10421000022A0BE1034A0D2A08D004C001F005C0B0
:1042200002F006C003F007C00DF00D50E56E03501C
:10423000E56E0250E56E0150E56E0C50E56E0B50D8
:10424000E56E0A50E56E0950E56E41EC23F0016E13
:10425000F3CF02F0F4CF03F0E9CF04F0080EE1262B
:104260000050081A085016E0041C076E031C066E66
:10427000021C056E011C006E002A04E1052A02E101
:10428000064A072A07C0E9FF06C0F4FF05C0F3FF8E
:10429000005007D004C0E9FF03C0F4FF02C0F3FFE1
:1042A0000150E4CF0DF0E4CF0CF0E4CF0BF0E4CFFD
:1042B0000AF0E4CF09F0E4CF08F0E4CF07F0E4CF50
:1042C00006F0E4CF05F0E4CF04F0E4CF03F0E4CF50
:1042D00002F0E4CF01F0E4CF00F0E4CFD9FF120008
:1042E00000C0E5FF01C0E5FF02C0E5FF03C0E5FF38
:1042F00004C0E5FF05C0E5FF006AB00E0024016EB2
:10430000026A030E022201C0E9FF02C0EAFFEFCFFA
:1043100001F00150FF0A01E171D001380F0B026E6C
:10432000036A800E02260F0E032202C0E9FF03C0BB
:10433000EAFFEFCF02F0070E0116010E036E000E2A
:10434000046E015006E0E86CD89003360436010F85
:10435000FCE3056A025003160550041603500410CE
:10436000D880E866D890036A0336035024E1003809
:10437000E8441F0B016E026A2D0E0126050E022273
:1043800001C0E9FF02C0EAFFEFCF03F0070E0014FF
:10439000046E010E056E045005E0E86CD8900536F9
:1043A000010FFDE30550031201C0E9FF02C0EAFF5F
:1043B00003C0EFFF23D00038E8441F0B016E026AF0
:1043C0002D0E0126050E022201C0E9FF02C0EAFF00
:1043D000EFCF03F0070E0014046E010E056E0450BB
:1043E00005E0E86CD8900536010FFDE3051C0316C7
:1043F00001C0E9FF02C0EAFF03C0EFFF002A100E70
:10440000005CD8A07AD7E4CF05F0E4CF04F0E4CF85
:1044100003F0E4CF02F0E4CF01F0E4CF00F01200AB
:10442000D9CFE5FFE1CFD9FF00C0E5FF01C0E5FF2F
:1044300002C0E5FF03C0E5FF04C0E5FF05C0E5FFDE
:1044400006C0E5FF07C0E5FF08C0E5FF09C0E5FFBE
:104450000AC0E5FF020EDBCF00F0030EDBCF01F058
:10446000040EDBCF02F0050EDBCF03F0060EDBCF30
:1044700004F0070EDBCF05F0080EDBCF06F0090EC7
:10448000DBCF07F0086A045005100610071005E19D
:10449000E968F468F368E86847D0096A0750800B58
:1044A000E8440A6E0A501BE104500426053606361D
:1044B00007360750035C08E10650025C05E1055031
:1044C000015C02E10450005C06E2D890073206323B
:1044D0000532043204D0092A09C008F0DFD707509A
:1044E000035C08E10650025C05E10550015C02E155
:1044F0000450005C08E30450005E0550015A065069
:10450000025A0750035AD890073206320532043255
:1045100008C009F008060950E2E103C0E9FF02C043
:10452000F4FF01C0F3FF0050E4CF0AF0E4CF09F03C
:10453000E4CF08F0E4CF07F0E4CF06F0E4CF05F0D5
:10454000E4CF04F0E4CF03F0E4CF02F0E4CF01F0D5
:10455000E4CF00F0E4CFD9FF1200D9CFE5FFE1CFDF
:10456000D9FF00C0E5FF01C0E5FF02C0E5FF03C0C1
:10457000E5FF04C0E5FF05C0E5FF06C0E5FF07C095
:10458000E5FF020EDBCF00F0030EDBCF01F0040EDF
:10459000DBCF02F000500B0F036E000E0120046E03
:1045A000000E0220E56AF46AF66AF76A03C0E9FFC2
:1045B00004C0F3FF5DEC35F00050070F036E000EF2
:1045C0000120046E000E0220056E0050030F066EDF
:1045D000000E0120076E000E0220E56AF46AF66AFA
:1045E000F76A06C0E9FF07C0F3FF5DEC35F0E56A46
:1045F000F46AF66AF76A03C0E9FF04C0F3FF0550E6
:104600005DEC35F00050010F036E000E0120046ECA
:10461000000E0220056E0050020F066E000E0120F3
:10462000076E000E0220E56A06C0E9FF07C0F3FF2F
:10463000F1EC35F0E56A03C0E9FF04C0F3FF055073
:10464000F1EC35F0E56A00C0E9FF01C0F3FF02506C
:10465000F1EC35F0E4CF07F0E4CF06F0E4CF05F05D
:10466000E4CF04F0E4CF03F0E4CF02F0E4CF01F0B4
:10467000E4CF00F0E4CFD9FF120025642025640ABE
:104680000000D9CFE5FFE1CFD9FF00C0E5FF01C0B1
:10469000E5FF02C0E5FF03C0E5FF04C0E5FF05C07C
:1046A000E5FF06C0E5FF07C0E5FF08C0E5FF09C05C
:1046B000E5FF0AC0E5FF0BC0E5FF0CC0E5FF0DC03C
:1046C000E5FF020EDBCF00F0030EDBCF01F0040E9E
:1046D000DBCF02F0050EDBCF03F0060EDBCF04F0DC
:1046E000070EDBCF05F0080EDBCF06F0090EDBCF9F
:1046F00007F0086A096A0A6A0B6A200E0C6E0350FA
:10470000800BE8440D6E0050002601360236033659
:104710000850082609360A360B360D50D8A40880F2
:1047200007500B5C08E106500A5C05E10550095C86
:1047300002E10450085C09E30450085E0550095A80
:1047400006500A5A07500B5A00800C040D6E0DC01B
:104750000CF00D50D4E103C0E9FF02C0F4FF01C02A
:10476000F3FF0050E4CF0DF0E4CF0CF0E4CF0BF0FA
:10477000E4CF0AF0E4CF09F0E4CF08F0E4CF07F08B
:10478000E4CF06F0E4CF05F0E4CF04F0E4CF03F08B
:10479000E4CF02F0E4CF01F0E4CF00F0E4CFD9FFA2
:1047A000120000C0E5FF01C0E5FF03C0E5FF04C043
:1047B000E5FF05C0E5FF06C0E5FF07C0E5FF08C04F
:1047C000E5FF09C0E5FF0AC0E5FF0BC0E5FF1FC517
:1047D00000F020C501F005011F3F01D0202B005043
:1047E000E56E8EEC35F0E652076E046A056A066ADD
:1047F0001FC500F020C501F005011F3F01D0202B8F
:104800000050E56E8EEC35F0E6520B6A0A6E086ACF
:104810000850041205120A5006120B5007121FC549
:1048200000F020C501F005011F3F01D0202B0050F2
:10483000E56E8EEC35F0E652036E006A03C001F0BF
:10484000E86A03BEFF0E086E096E005004120150A4
:10485000051208500612095007121FC500F020C5A6
:1048600001F005011F3F01D0202B0050E56E8EECBA
:1048700035F0E652016A04120150051206120712C1
:1048800007C0E9FF06C0F4FF05C0F3FF0450E4CF02
:104890000BF0E4CF0AF0E4CF09F0E4CF08F0E4CF66
:1048A00007F0E4CF06F0E4CF05F0E4CF04F0E4CF66
:1048B00003F0E4CF01F0E4CF00F0120000C0E5FF08
:1048C00001C0E5FF02C0E5FF03C0E5FF04C0E5FF4E
:1048D000050135510501341901E15FD035C500F0FE
:1048E000002A009E600E0024016E026A000E022261
:1048F00001C0E9FF02C0EAFFEFCF3FF51F0E05013F
:104900003F1735C53EF53F5105013E273E2B3E2B57
:104910003E9F5EEC32F0016E015003E1016A012A14
:1049200001D0016A5EEC32F005013F6F800E3F1549
:10493000026E1F0E3F15036E03C004F003C03FF567
:10494000045003E134C535F53BD001501BE0025063
:1049500022E05EEC32F0006E05013F070050420A93
:104960001AE000504E0A03E141EC2FF014D0005041
:10497000460A03E1DBEC35F00ED00050490A0BE1AA
:10498000FF0009D035C540F5025003E034EC2CF0AF
:1049900002D023EC33F03EC535F504013F5104014C
:1049A000401906E00501365103E102EC26F008D07B
:1049B00089BA06D00501365103E172B29CEC35F09C
:1049C000E4CF04F0E4CF03F0E4CF02F0E4CF01F051
:1049D000E4CF00F01200D9CFE5FFE1CFD9FF00C04E
:1049E000E5FF01C0E5FF02C0E5FF03C0E5FF04C02D
:1049F000E5FF05C0E5FF06C0E5FF07C0E5FF08C00D
:104A0000E5FF0BC0E5FF0CC0E5FF0DC0E5FF020EA2
:104A1000DBCF00F0030EDBCF01F0040EDBCF02F0A2
:104A2000050EDBCF03F0060EDBCF04F003C0E5FF7D
:104A300004C0F4FF00C0E9FF01C0F3FF0250B8EC6E
:104A400035F00050020F056E000E0120066E000EBC
:104A50000220076EE86A04BEFF0E086E04500C6E5A
:104A60000C2608340D6ED8900C360D360344E844FD
:104A7000FC0B0B6E0350E844E844030B0C12E56A90
:104A80000BC0F4FF0CC0F6FF0DC0F7FF05C0E9FF37
:104A900006C0F3FF07505DEC35F0080E0026000E4F
:104AA00001220222E56AF46AF66AF76A00C0E9FFA9
:104AB00001C0F3FF02505DEC35F0E4CF0DF0E4CF20
:104AC0000CF0E4CF0BF0E4CF08F0E4CF07F0E4CF34
:104AD00006F0E4CF05F0E4CF04F0E4CF03F0E4CF38
:104AE00002F0E4CF01F0E4CF00F0E4CFD9FF1200F0
:104AF000D9CFE5FFE1CFD9FF00C0E5FF01C0E5FF59
:104B000002C0E5FF03C0E5FF04C0E5FF05C0E5FF07
:104B100006C0E5FF07C0E5FF08C0E5FF09C0E5FFE7
:104B20000AC0E5FF020EDBCF00F0030EDBCF01F081
:104B3000040EDBCF02F0050EDBCF03F0060EDBCF59
:104B400004F0070EDBCF05F00038E8441F0B066EBB
:104B5000076A290E0626050E072206C0E9FF07C0D0
:104B6000EAFFEFCF08F0070E0014096E010E0A6E7F
:104B7000095005E0E86CD8900A36010FFDE30A50B1
:104B8000081206C0E9FF07C0EAFF08C0EFFFA00E49
:104B90000024066E076A030E072206C0E9FF07C05D
:104BA000EAFF01C0EFFF016AE80E0026040E0122B1
:104BB000800E025E070E02160238F00B036E070E1F
:104BC00005160550032600C0E9FF01C0EAFF03C037
:104BD000EFFFE4CF0AF0E4CF09F0E4CF08F0E4CF30
:104BE00007F0E4CF06F0E4CF05F0E4CF04F0E4CF23
:104BF00003F0E4CF02F0E4CF01F0E4CF00F0E4CF23
:104C0000D9FF120000C0E5FF01C0E5FF02C0E5FFCB
:104C100003C0E5FF72A276D0B1EC33F0006E005015
:104C200005E10401406B04013F6B6CD040C401F00E
:104C300000500126B1EC33F0026E00060250230A48
:104C40001FE1010E005CD8A05BD0B1EC33F0026E26
:104C5000690A03E104EC32F053D00250720A03E116
:104C60009CEC35F04DD00250730A01E049D0898A9E
:104C70007186A38AA398745074507198718840D03B
:104C80000250430A05E00250420A01E039D001D047
:104C9000008E00C038F500500401006F010E0501C0
:104CA000396F04014051011814E0B1EC33F0026E89
:104CB00005013827000E05013925006E036A040E30
:104CC000032200C0E9FF03C0EAFF02C0EFFF392B57
:104CD000E8D7000E05013925006E026A040E022293
:104CE0000501381D036E032A00C0E9FF02C0EAFF78
:104CF00003C0EFFF0501392B39C536F50501306BCF
:104D000001C040F4E4CF03F0E4CF02F0E4CF01F0BF
:104D1000E4CF00F01200D9CFE5FFE1CFD9FF00C00A
:104D2000E5FF01C0E5FF02C0E5FF03C0E5FF04C0E9
:104D3000E5FF05C0E5FF06C0E5FF07C0E5FF020E81
:104D4000DBCF00F0030EDBCF01F0040EDBCF02F06F
:104D5000050EDBCF03F002C006F00650046E800A99
:104D600033E100C0E9FF01C0F3FF025028EC34F04A
:104D7000056EF3CF06F0F4CF07F003C0E5FF05C0E2
:104D8000E9FF06C0F3FF0750F1EC35F000C0E9FF82
:104D900001C0F3FF025028EC34F0056EF3CF06F0AB
:104DA000F4CF07F0052A02E3064A072A05C0E5FF0B
:104DB00006C0F4FF07C0F6FF00C0E9FF01C0F3FF23
:104DC00002507FEC35F01DD004AA1BD0047A0450A9
:104DD00004E1035032EC36F014D00450010A04E12F
:104DE000035002EC00F00DD004500F0A04E1035010
:104DF000D3EC31F006D004500E0A03E1035042EC2C
:104E000036F0E4CF07F0E4CF06F0E4CF05F0E4CFCE
:104E100004F0E4CF03F0E4CF02F0E4CF01F0E4CFFC
:104E200000F0E4CFD9FF120000C0E5FF01C0E5FFAC
:104E300002C0E5FF03C0E5FF04C0E5FF006A290EDC
:104E40000024016E026A050E022201C0E9FF02C0C1
:104E5000EAFFEF6A002A020E005CF1E3006A0050EC
:104E6000020DF450026EF3CF01F0E00E0124036E48
:104E7000000E0220046E03C0E9FF04C0EAFFEE6AE0
:104E8000EF6A5B0E0124036E040E0220046E03C061
:104E9000E9FF04C0EAFFEE6AEF6A000E0124036E28
:104EA000030E0220046E03C0E9FF04C0EAFFEE6AAD
:104EB000EF6A200E0124036E030E0220046E03C06D
:104EC000E9FF04C0EAFFEE6AEF6A400E0126030E16
:104ED000022201C0E9FF02C0EAFFEE687F0EEF6E1A
:104EE000E80E0024016E026A040E022201C0E9FFEE
:104EF00002C0EAFFEF68002A100E005CD8A0AFD70E
:104F0000AF0EC06EC16A010EC26EC282E4CF04F061
:104F1000E4CF03F0E4CF02F0E4CF01F0E4CF00F0FF
:104F200012004320412025642025640A0000D9CFC7
:104F3000E5FFE1CFD9FF00C0E5FF01C0E5FF02C0FA
:104F4000E5FF03C0E5FF04C0E5FF05C0E5FF06C0BF
:104F5000E5FF07C0E5FF08C0E5FF09C0E5FF0AC09F
:104F6000E5FF0BC0E5FF0CC0E5FF020EDBCF00F054
:104F7000030EDBCF01F0040EDBCF02F0050EDBCF1A
:104F800003F0060EDBCF04F0070EDBCF05F0080EB2
:104F9000DBCF06F0090EDBCF07F002500A6E01509E
:104FA000096E0050086E06C00BF007C00CF0FF0E33
:104FB000062607220B500C101AE003C0E9FF04C0BC
:104FC000F3FF05506EEC35F00B6E032A02E3044A42
:104FD000052A0BC0E5FF08C0E9FF09C0F3FF0A502E
:104FE000F1EC35F0082ADFE3094A0A2ADCD702C0CF
:104FF000F4FF01C0F3FF0050E4CF0CF0E4CF0BF05E
:10500000E4CF0AF0E4CF09F0E4CF08F0E4CF07F0F2
:10501000E4CF06F0E4CF05F0E4CF04F0E4CF03F0F2
:10502000E4CF02F0E4CF01F0E4CF00F0E4CFD9FF09
:105030001200D9CFE5FFE1CFD9FF00C0E5FF01C0E5
:10504000E5FF02C0E5FF03C0E5FF04C0E5FF05C0C2
:10505000E5FF06C0E5FF07C0E5FF020EDBCF00F06D
:10506000030EDBCF01F0040EDBCF02F0050EDBCF29
:1050700003F040C441F404013F510401415F410782
:1050800003C004F0056A030E0426D8B0052A41C403
:1050900006F0076A0750800FF36E0550800FF35C2F
:1050A00002E10450065C02E2E8682BD0020E035CC9
:1050B00002E2E86A26D003060350E56E7FEC30F08A
:1050C000E652046A0350045C14E204500024056EA6
:1050D000E86A0120066EE86A022005C0E9FF06C002
:1050E000F3FF6EEC35F0042AE56E7FEC30F0E6520B
:1050F000E9D740C441F404013F510401415F410735
:10510000E86AE4CF07F0E4CF06F0E4CF05F0E4CF9F
:1051100004F0E4CF03F0E4CF02F0E4CF01F0E4CFF9
:1051200000F0E4CFD9FF1200D9CFE5FFE1CFD9FFDE
:1051300000C0E5FF01C0E5FF02C0E5FF03C0E5FFD9
:1051400004C0E5FF05C0E5FF020EDBCF00F0030E53
:10515000DBCF01F0040EDBCF02F00050020DF45063
:10516000036EF3CF00F05B0E0024046E040E0320E8
:10517000056E04C0E9FF05C0EAFF01C0EEFF02C0F2
:10518000EFFF000E0024046E030E0320056E04C022
:10519000E9FF05C0EAFFEECF04F0EFCF05F00150C4
:1051A000045C016E02500558026E600E0026030E6C
:1051B000032200C0E9FF03C0EAFF01C0EEFF02C006
:1051C000EFFFD88002AED89004E3021E016CD8B481
:1051D000022A0250800F800F02E1030E015C02E2FE
:1051E000016A026A0150021007E100C0E9FF03C032
:1051F000EAFF000EEE6AEF6AE4CF05F0E4CF04F0B8
:10520000E4CF03F0E4CF02F0E4CF01F0E4CF00F00C
:10521000E4CFD9FF1200D9CFE5FFE1CFD9FF00C01D
:10522000E5FF01C0E5FF02C0E5FF03C0E5FF04C0E4
:10523000E5FF05C0E5FF06C0E5FF020EDBCF00F08D
:10524000030EDBCF01F0040EDBCF02F0050EDBCF47
:1052500003F0D88001AED890046A0436045007E009
:10526000011C066E001C056E054A062A04D000C00B
:1052700005F001C006F0D88003AED89007E3031C08
:10528000016E021C006E004A012A04D002C000F028
:1052900003C001F00150E56E0050E56E0650E56E6A
:1052A0000550E56ED7EC2BF0006EF3CF01F0040E45
:1052B000E12604500AE0011C036E001C026E024A43
:1052C000032A03C0F3FF025003D001C0F3FF0050D4
:1052D000E4CF06F0E4CF05F0E4CF04F0E4CF03F030
:1052E000E4CF02F0E4CF01F0E4CF00F0E4CFD9FF47
:1052F0001200D9CFE5FFE1CFD9FF00C0E5FF01C023
:10530000E5FF02C0E5FF03C0E5FF04C0E5FF05C0FF
:10531000E5FF020EDBCF00F0030EDBCF01F0040E41
:10532000DBCF02F0050EDBCF03F01FC504F020C574
:1053300005F005011F3F01D0202B0350E56E0450FE
:10534000E56E6DEC33F0E652E6521FC504F020C561
:1053500005F005011F3F01D0202B0250056EE56EC0
:105360000450E56E6DEC33F0E652E6521FC504F0D2
:1053700020C505F005011F3F01D0202B0150056E0F
:10538000E56E0450E56E6DEC33F0E652E6521FC553
:1053900004F020C505F005011F3F01D0202B00506F
:1053A000E56E0450E56E6DEC33F0E652E652E4CF64
:1053B00005F0E4CF04F0E4CF03F0E4CF02F0E4CF53
:1053C00001F0E4CF00F0E4CFD9FF1200D9CFE5FF20
:1053D000E1CFD9FF00C0E5FF01C0E5FF02C0E5FF56
:1053E00003C0E5FF04C0E5FF05C0E5FF06C0E5FF1B
:1053F000020EDBCF00F0030EDBCF01F0040EDBCF9B
:1054000002F005012F5119E1D1EC23F0036EF3CF27
:1054100004F0F4CF05F0E9CF06F003C0E5FF04C0C7
:10542000F4FF05C0F6FF06C0F7FF00C0E9FF01C0AA
:10543000F3FF02505DEC35F01ED005012F51010A3B
:105440001AE100C0E9FF01C0F3FF025091EC33F014
:10545000006EF3CF01F0F4CF02F0E9CF03F0035078
:10546000E56E0250E56E0150E56E0050E56E79EC98
:1054700029F0040EE126E4CF06F0E4CF05F0E4CFF6
:1054800004F0E4CF03F0E4CF02F0E4CF01F0E4CF86
:1054900000F0E4CFD9FF1200D9CFE5FFE1CFD9FF6B
:1054A00000C0E5FF01C0E5FF02C0E5FF03C0E5FF66
:1054B00004C0E5FF020EDBCF00F0030EDBCF01F0EE
:1054C000040EDBCF02F00050070F036E000E012028
:1054D000046E000E0220E56E0450E56E0350E56E8A
:1054E00003EC30F0030EE1260050230F036E000E94
:1054F0000120046E000E0220E56E0450E56E03509C
:10550000E56E89EC2CF0030EE1260050330F036E9C
:10551000000E0120046E000E0220E56E0450E56EC0
:105520000350E56E78EC2BF0030EE126440E0026C6
:10553000000E012202220250E56E0150E56E00507D
:10554000E56E78EC2BF0030EE126E4CF04F0E4CF17
:1055500003F0E4CF02F0E4CF01F0E4CF00F0E4CFB9
:10556000D9FF1200D9CFE5FFE1CFD9FF00C0E5FF99
:1055700001C0E5FF02C0E5FF03C0E5FF04C0E5FF91
:1055800005C0E5FF06C0E5FF020EDBCF00F0030E0D
:10559000DBCF01F00038E8441F0B026E036A290ECE
:1055A0000226050E032202C0E9FF03C0EAFFEFCF87
:1055B00004F0070E0014056E010E066E055005E09E
:1055C000E86CD8900636010FFDE30650041202C0C5
:1055D000E9FF03C0EAFF04C0EFFFA00E0024026E43
:1055E000036A030E032202C0E9FF03C0EAFF01C001
:1055F000EFFF016AE80E0026040E012200C0E9FF59
:1056000001C0EAFFFF0EEF68E4CF06F0E4CF05F03B
:10561000E4CF04F0E4CF03F0E4CF02F0E4CF01F0F4
:10562000E4CF00F0E4CFD9FF1200D9CFE5FFE1CFFE
:10563000D9FF00C0E5FF01C0E5FF02C0E5FF03C0E0
:10564000E5FF04C0E5FF05C0E5FF06C0E5FF020E6B
:10565000DBCF00F0030EDBCF01F0040EDBCF02F056
:10566000050EDBCF03F0060EDBCF04F0070EDBCF19
:1056700005F0080EDBCF06F0D88003AED89015E316
:1056800006500A0A12E104C0E9FF05C0EAFF2D0E28
:10569000EF6E044A052A031E021E011E006C05E17E
:1056A000012A03E1022AD8B4032A0650E56E055008
:1056B000E56E0450E56E0350E56E0250E56E015054
:1056C000E56E0050E56EF0EC1EF0070EE126E4CF2B
:1056D00006F0E4CF05F0E4CF04F0E4CF03F0E4CF2C
:1056E00002F0E4CF01F0E4CF00F0E4CFD9FF1200E4
:1056F000D9CFE5FFE1CFD9FF00C0E5FF01C0E5FF4D
:1057000002C0E5FF03C0E5FF04C0E5FF020EDBCFEA
:1057100000F0030EDBCF01F0040EDBCF02F00250ED
:10572000E56E0150E56E0050E56E03EC30F0030EBF
:10573000E1260050010F036E000E0120046E000EE2
:105740000220E56E0450E56E0350E56E03EC30F088
:10575000030EE1260050020F036E000E0120046EBE
:10576000000E0220E56E0450E56E0350E56E03EC7A
:1057700030F0030EE1260F0E0026000E0122022259
:105780000250E56E0150E56E0050E56E83EC2DF0A1
:10579000030EE126E4CF04F0E4CF03F0E4CF02F0FF
:1057A000E4CF01F0E4CF00F0E4CFD9FF1200D9CF6D
:1057B000E5FFE1CFD9FF00C0E5FF01C0E5FF02C072
:1057C000E5FF03C0E5FF04C0E5FF05C0E5FF06C037
:1057D000E5FF020EDBCF00F0030EDBCF01F0040E7D
:1057E000DBCF02F0050EDBCF03F0046A056A03503D
:1057F000800BE844066E065011E102500226033683
:105800000350015C02E10250005C04E2D8900332D4
:10581000023204D0052A05C004F0E9D70350015C28
:1058200002E10250005C04E30250005E0350015AA2
:10583000D8900332023204C005F004060550EEE1B0
:1058400001C0F3FF0050E4CF06F0E4CF05F0E4CF51
:1058500004F0E4CF03F0E4CF02F0E4CF01F0E4CFB2
:1058600000F0E4CFD9FF120000C0E5FF01C0E5FF62
:1058700002C0E5FF3CEC36F0006E5EEC32F0016EEB
:105880004C0A03E15EEC32F03DD00150450A23E1C1
:10589000000EE56E410EE56E3C0EE56EC3EC2FF09A
:1058A000030EE126010E026E0050025C10E25EEC77
:1058B00032F0E56AE56E000EE56E410EE56E3E0ED5
:1058C000E56EC3EC2FF0050EE126022AEDD70A0E95
:1058D000D3EC31F017D00150570A03E12EEC36F02B
:1058E00011D00150530A0EE15EEC32F0410A0AE198
:1058F0005EEC32F0560A06E15EEC32F0450A02E157
:10590000FCEC35F0E4CF02F0E4CF01F0E4CF00F09E
:105910001200D9CFE5FFE1CFD9FF00C0E5FF01C0FC
:10592000E5FF02C0E5FF03C0E5FF04C0E5FF020E8E
:10593000DBCF00F0030EDBCF01F0040EDBCF02F073
:105940000050060F036E000E0120046E000E0220B0
:10595000E56E0450E56E0350E56E83EC2DF0030E0A
:10596000E12600500C0F036E000E0120046E000EA5
:105970000220E56E0450E56E0350E56E83EC2DF0D9
:10598000030EE1260E0E0026000E01220222025016
:10599000E56E0150E56E0050E56E83EC2DF0030ED0
:1059A000E126E4CF04F0E4CF03F0E4CF02F0E4CF4B
:1059B00001F0E4CF00F0E4CFD9FF1200D9CFE5FF2A
:1059C000E1CFD9FF00C0E5FF01C0E5FF02C0E5FF60
:1059D00003C0E5FF04C0E5FF020EDBCF00F0030EBD
:1059E000DBCF01F0040EDBCF02F0E56AF46A00C001
:1059F000E9FF01C0F3FF0250B8EC35F00050020F90
:105A0000036E000E0120046E000E0220E56AF46AA7
:105A1000F66AF76A03C0E9FF04C0F3FF5DEC35F0F6
:105A2000080E0026000E01220222E56AF46AF66AD8
:105A3000F76A00C0E9FF01C0F3FF02505DEC35F0EA
:105A4000E4CF04F0E4CF03F0E4CF02F0E4CF01F0C0
:105A5000E4CF00F0E4CFD9FF120025642025640ACA
:105A6000000000C0E5FF01C0E5FF02C0E5FF03C084
:105A7000E5FF35C500F0016A40C502F0036A025037
:105A8000005E0350015AE56A800EE56E0150E56E36
:105A90000050E56E0BEC29F0006E040EE1260006C6
:105AA00040C501F0430ED3EC31F0200ED3EC31F0C1
:105AB000005020E0600E0124026E036A000E0322F3
:105AC00002C0E9FF03C0EAFFEFCF02F0E56A02502F
:105AD000E56E000EE56E6B0EE56E500EE56EC3ECE6
