:020000040000FA
:100000005AEF12F0C96E12003EEF0FF013EC0EF033
:100010004CEC13F0FDD71200ACEF10F0D9CFE5FF98
:10002000E1CFD9FF00C0E5FF01C0E5FF02C0E5FF59
:1000300003C0E5FF04C0E5FF05C0E5FF06C0E5FF1E
:1000400007C0E5FF08C0E5FF09C0E5FF0AC0E5FFFE
:100050000BC0E5FF0CC0E5FF0DC0E5FF0EC0E5FFDE
:100060000FC0E5FF10C0E5FF11C0E5FF12C0E5FFBE
:1000700013C0E5FF14C0E5FF15C0E5FF16C0E5FF9E
:1000800017C0E5FF18C0E5FF19C0E5FF1AC0E5FF7E
:100090001BC0E5FF1CC0E5FF1DC0E5FF1EC0E5FF5E
:1000A000020EDBCF00F0030EDBCF01F0040EDBCF3E
:1000B00002F0050EDBCF03F0060EDBCF04F0070ED7
:1000C000DBCF05F0080EDBCF06F0090EDBCF07F023
:1000D0000A0EDBCF08F0096A0A6A02C00DF00D5063
:1000E000800A0DE1025004018F6F01508E6F0050A5
:1000F0008D6F040E016E8D0E006E800E026E03C0B9
:10010000E9FF04C0F3FF055093EC12F00B6E0B50A7
:10011000D8B4C4EF03F00B50250A02E0ABEF03F0B4
:100120000C6A0D6A0E6A0F6A106A0A0E116E126A64
:10013000136A146A200E156E1668176A2B0E186E55
:10014000032A02E3044A052A03C0E9FF04C0F3FFBF
:10015000055093EC12F0196E250A13E11950E56E63
:100160000250E56E0150E56E0050E56E5FEC09F05F
:10017000040EE126094A0A2A032A02E3044A052A50
:10018000BED71950300A06E1300E156E032A02E37D
:10019000044A052A03C0E9FF04C0F3FF055093ECAD
:1001A00012F02D0A06E1010E146E032A02E3044A3E
:1001B000052A03C0E9FF04C0F3FF055093EC12F0D9
:1001C000200A08E1010E176E200E186E032A02E3C2
:1001D000044A052A03C0E9FF04C0F3FF055093EC6D
:1001E00012F02B0A06E1010E176E032A02E3044AFD
:1001F000052A03C0E9FF04C0F3FF055093EC12F099
:10020000196E310E195C2BE33A0E195C28E203C01B
:1002100019F004C01AF005C01BF019C0E9FF1AC09C
:10022000F3FF1B5093EC12F01C6E300E1C5C11E3BC
:100230003A0E1C5C0EE213500A0DF3CF1DF01D5058
:100240001C26D00E1C24136E192A02E31A4A1B2AFC
:10025000E4D719C003F01AC004F01BC005F003C0B6
:10026000E9FF04C0F3FF055093EC12F02E0A2DE1D4
:10027000032A02E3044A052A166A03C019F004C0DF
:100280001AF005C01BF019C0E9FF1AC0F3FF1B509C
:1002900093EC12F01C6E300E1C5C11E33A0E1C5CE9
:1002A0000EE216500A0DF3CF1DF01D501C26D00E85
:1002B0001C24166E192A02E31A4A1B2AE4D719C015
:1002C00003F01AC004F01BC005F003C0E9FF04C02E
:1002D000F3FF055093EC12F0196E6C0A07E1010E62
:1002E0000C6E032A02E3044A052A09D01950680A51
:1002F00006E1010E0E6E032A02E3044A052A03C03A
:10030000E9FF04C0F3FF055093EC12F0750A06E113
:10031000010E106E032A02E3044A052A03C0E9FF16
:1003200004C0F3FF055093EC12F0196E730A05E157
:10033000010E0D6E200E156E3FD01950780A03E1A4
:10034000100E116E39D01950580A05E1100E116EB9
:10035000010E126E31D01950630A02E1116A2CD0DD
:1003600019506F0A03E1080E116E26D01950660A63
:1003700003E1010E0F6E20D01950640A1DE01950E0
:10038000690A1AE0105005E0FF0E03260422052238
:1003900013D01950E56E0250E56E0150E56E005025
:1003A000E56E5FEC09F0040EE126094A0A2A032AE9
:1003B00002E3044A052AA3D60D5021E00650030F9C
:1003C0000D6E000E0720196E000E08201A6E0DC06B
:1003D00006F019C007F01AC008F0FD0E0D26FF0E3A
:1003E00019221A220DC0E9FF19C0F3FF1A506FEC51
:1003F00011F00D6EF3CF19F0F4CF1AF0FDD00F50BD
:100400000DE0000E1A6E080E196E100E0D6E040E21
:100410000626000E072208221668EED016680C5039
:1004200023E00650040F0C6E000E07200F6E000E26
:1004300008201B6E0CC006F00FC007F01BC008F0B0
:10044000FC0E0C26FF0E0F221B220CC0E9FF0FC072
:10045000F3FF1B50F5EC10F00C6EF3CF0FF0F4CF60
:100460001BF0E9CF1CF067D00E502FE00650020FB2
:100470000E6E000E07201D6E000E08201E6E0EC0B0
:1004800006F01DC007F01EC008F0FE0E0E26FF0E7F
:100490001D221E220EC0E9FF1DC0F3FF1E502EECD0
:1004A00012F00E6E0EC00CF00F6A1B6A1C6A11501F
:1004B0000A0A03E11050D8B43ED00C500E6E0EC0A4
:1004C0000CF00F6A1B6A1C6A36D00650020F0E6EC3
:1004D000000E07201D6E000E08201E6E0EC006F0D6
:1004E0001DC007F01EC008F0FE0E0E26FF0E1D22D6
:1004F0001E220EC0E9FF1DC0F3FF1E502EEC12F0AD
:100500000E6EF3CF1DF00EC00CF01DC00FF0E86AA8
:100510001DBEFF0E1B6E1C6E11500A0A02E1105028
:100520000AE00C500E6E0F501D6E0EC00CF01DC078
:100530000FF01B6A1C6A040E196E240E0D6E800EDD
:100540001A6E1150D8B440D0105013E01150E56E1F
:10055000040EE56E240EE56E1C50E56E1B50E56E34
:100560000F50E56E0C50E56E10EC05F0070EE1261D
:1005700012D01150E56E040EE56E240EE56E1C508F
:10058000E56E1B50E56E0F50E56E0C50E56EA4EC69
:100590000BF0070EE12617502FE00DC0E9FF19C040
:1005A000F3FF1A5093EC12F02D0A26E0FF0E0D26F1
:1005B00019221A2218C0E5FF0DC0E9FF19C0F3FF88
:1005C0001A5011EC13F018D00CC0E5FF0DC0E9FF74
:1005D00019C0F3FF1A5011EC13F00D50010F0C6EFF
:1005E000000E19200E6E000E1A20E56A0CC0E9FFFD
:1005F0000EC0F3FF11EC13F00DC00CF019C00EF09B
:100600001AC00FF013C010F0105010E00CC0E9FF3A
:100610000EC0F3FF0F5093EC12F0176E175006E068
:100620000C2A02E30E4A0F2A1006EED710C013F070
:1006300014501EE109C00CF00AC00EF010C00FF0FB
:100640000F5010E01550E56E0250E56E0150E56E5A
:100650000050E56E5FEC09F0040EE1260C4A0E2A0C
:100660000F06EED70CC009F00EC00AF00FC013F051
:1006700016C00CF00DC00DF019C00EF01AC00FF02E
:1006800009C010F00AC015F00DC0E9FF0EC0F3FF5D
:100690000F5093EC12F0166E1650D8B43ED00CC02A
:1006A00016F0176A161E171E1650171005E00CC01C
:1006B00016F00C06165031E00DC0E9FF0EC0F3FF36
:1006C0000F5093EC12F0116E125010E01150E56EC5
:1006D000EBEC11F0166EE652165004E0DF0E11142A
:1006E000166E02D011C016F016C011F01150E56E52
:1006F0000250E56E0150E56E0050E56E5FEC09F0CA
:10070000040EE1260D2A02E30E4A0F2A104A152A8A
:100710001350D8B4B9D71306B7D710C009F015C015
:100720000AF014502BE010C00CF015C00DF013C0EF
:100730000EF00E501FE0200EE56E0250E56E0150E7
:10074000E56E0050E56E5FEC09F0040EE1260C4A00
:100750000D2A0E06EED70B50E56E0250E56E0150E5
:10076000E56E0050E56E5FEC09F0040EE126094AE3
:100770000A2A04D00CC009F00DC00AF0032A02E3D3
:10078000044A052A7FEF00F00AC0F3FF0950E4CFC6
:100790001EF0E4CF1DF0E4CF1CF0E4CF1BF0E4CF5B
:1007A0001AF0E4CF19F0E4CF18F0E4CF17F0E4CF5B
:1007B00016F0E4CF15F0E4CF14F0E4CF13F0E4CF5B
:1007C00012F0E4CF11F0E4CF10F0E4CF0FF0E4CF5B
:1007D0000EF0E4CF0DF0E4CF0CF0E4CF0BF0E4CF5B
:1007E0000AF0E4CF09F0E4CF08F0E4CF07F0E4CF5B
:1007F00006F0E4CF05F0E4CF04F0E4CF03F0E4CF5B
:1008000002F0E4CF01F0E4CF00F0E4CFD9FF120012
:100810003C4E4F20464C4F41543E000000C0E5FF87
:1008200001C0E5FF0F012851D8B4F5D09DA81DD017
:100830009EA81BD00F0135510F01321905E1D2ECF2
:1008400012F00F01326BE7D0000E0F013525006E5C
:10085000016A040E012200C0E9FF01C0EAFFEFCFE8
:100860002EFF352B2ECFADFFD6D09EAAD4D0ABA273
:1008700005D00F013381D2EC12F0CDD0ABA405D05E
:100880000F013383D2EC12F0C6D0ABA03ED0AECF76
:100890002EFF800E0F0129110F012E1904E10F0107
:1008A0003389AB96B8D00F012E5104E02E510F01C1
:1008B000291927E10F013399AB960F012E5103E05F
:1008C0000F01339702D00F0133872ECF39F430CF89
:1008D0003AF40F01300504013B6F600E04013A2524
:1008E000006E016A000E012200C0E9FF01C0EAFFAC
:1008F0002ECFEFFF3A2B3A51800A02E104013A6B06
:100900008AD00F013399AB8686D0AECF2EFF0F0170
:1009100033A919D0800E0F0129110F012E1911E1F1
:100920008B909D9AAB980F01325104E1AD6AD2ECE5
:1009300012F007D000C4ADFF010E0F01356F9D8886
:100940006AD0AB8668D00F012E510401392704010B
:100950003A5104013B191BE1040139510CE13AC43D
:1009600030FF0F0133B712D08B909D9AAB98AD6AD0
:10097000D2EC12F00BD00F01338533B707D08B9038
:100980009D9AAB98010EAD6ED2EC12F044D00401EA
:100990003A510F01311908E10F0131510F0130199E
:1009A00003E0D2EC12F037D030CF00F0016A004AF9
:1009B000012AE56A800EE56E0150E56E0050E56E95
:1009C00063EC0AF0006E040EE12600500F012F6F59
:1009D00004013A190CE11F0E0F012E1504013B6FA3
:1009E0003B2B3B2B0F01305104013B273B9F3AC46B
:1009F00000F004013A2B016A600E0026000E01226D
:100A000000C0E9FF01C0EAFF2ECFEFFF3A51800A94
:100A100002E104013A6BE4CF01F0E4CF00F01200F0
:100A2000D9CFE5FFE1CFD9FF00C0E5FF01C0E5FF69
:100A300002C0E5FF03C0E5FF04C0E5FF05C0E5FF18
:100A400006C0E5FF07C0E5FF08C0E5FF09C0E5FFF8
:100A50000AC0E5FF0BC0E5FF0CC0E5FF0DC0E5FFD8
:100A60000EC0E5FF0FC0E5FF020EDBCF00F0030E66
:100A7000DBCF01F0040EDBCF02F0050EDBCF03F07D
:100A8000060EDBCF04F0070EDBCF05F0080EDBCF40
:100A900006F0200E076E086A06C009F00A6A0B6AA3
:100AA0000C6AE56AE56AE56A0950E56E0350E56E91
:100AB0000250E56E0150E56E0050E56E92EC06F0D6
:100AC0000D6E080EE126300E0D263A0E0D5C05E384
:100AD0000D500E6E270E0E240D6EFF0E07260822F7
:100AE000E00E07240E6E000E08200F6E0EC0E9FF08
:100AF0000FC0EAFF0DC0EFFF0C50E56E0B50E56E26
:100B00000A50E56E0950E56E0350E56E0250E56E41
:100B10000150E56E0050E56E2FEC07F0006EF3CF4C
:100B200001F0F4CF02F0E9CF03F0080EE126005007
:100B3000011002100310D8A4AFD707C000F008C0FE
:100B400001F004C002F005C003F000C004F001C0D1
:100B500005F0004A012AE00E0426000E052204C01A
:100B6000E9FF05C0EAFFEFCF04F002C0E9FF03C0D0
:100B7000EAFF04C0EFFF024A032A000E015C02E113
:100B8000200E005CE2E302C0E9FF03C0EAFF000EB2
:100B9000EF6AE4CF0FF0E4CF0EF0E4CF0DF0E4CF36
:100BA0000CF0E4CF0BF0E4CF0AF0E4CF09F0E4CF8F
:100BB00008F0E4CF07F0E4CF06F0E4CF05F0E4CF8F
:100BC00004F0E4CF03F0E4CF02F0E4CF01F0E4CF8F
:100BD00000F0E4CFD9FF120000C0E5FF01C0E5FF3F
:100BE00002C0E5FF03C0E5FF04C0E5FF05C0E5FF67
:100BF00006C0E5FF35EC10F0006E330A2BE135EC52
:100C000010F0016A026E35EC10F0046A01260450FF
:100C100002220150020BE840010BE838E844F46E70
:100C20000F015451DF0BF410546F0150010B010BF5
:100C3000E838F46E5451EF0BF410546FD890023032
:100C4000046E0130036ED8900432033203500F015A
:100C5000556F59D00050340A2BE135EC10F0036A7F
:100C6000046E35EC10F0066A0324016E0650042071
:100C7000026E0150020BE840010BE838E844F46EC4
:100C8000BD50DF0BF410BD6E0150010B010BE838B5
:100C9000F46EBD50EF0BF410BD6ED8900230046EB0
:100CA0000130036ED890043203320350BE6E2BD055
:100CB0000050350A28E135EC10F0006A036E35EC7F
:100CC00010F0056A0024016E05500320026E0150E9
:100CD000020BE840010BE838E844F46E6650DF0B85
:100CE000F410666E0150010B010BE838F46E66508B
:100CF000EF0BF410666ED89002320132D8900232B7
:100D000001320150676EE4CF06F0E4CF05F0E4CF86
:100D100004F0E4CF03F0E4CF02F0E4CF01F0E4CF3D
:100D200000F01200D9CFE5FFE1CFD9FF00C0E5FF09
:100D300001C0E5FF02C0E5FF03C0E5FF04C0E5FF19
:100D400005C0E5FF06C0E5FF07C0E5FF08C0E5FFF9
:100D500009C0E5FF0AC0E5FF020EDBCF00F0030E7D
:100D6000DBCF01F0040EDBCF02F0050EDBCF03F08A
:100D7000060EDBCF04F0070EDBCF05F0080EDBCF4D
:100D800006F0090EDBCF07F0086A045005100610C4
:100D9000071005E1E968F468F368E86847D0096A74
:100DA0000750800BE8440A6E0A501BE104500426E9
:100DB0000536063607360750035C08E10650025C2C
:100DC00005E10550015C02E10450005C06E2D890A8
:100DD000073206320532043204D0092A09C008F06D
:100DE000DFD70750035C08E10650025C05E10550BF
:100DF000015C02E10450005C08E30450005E055011
:100E0000015A0650025A0750035AD8900732063248
:100E10000532043208C009F008060950E2E103C0B7
:100E2000E9FF02C0F4FF01C0F3FF0050E4CF0AF075
:100E3000E4CF09F0E4CF08F0E4CF07F0E4CF06F008
:100E4000E4CF05F0E4CF04F0E4CF03F0E4CF02F008
:100E5000E4CF01F0E4CF00F0E4CFD9FF1200D9CF06
:100E6000E5FFE1CFD9FF00C0E5FF01C0E5FF02C00B
:100E7000E5FF03C0E5FF04C0E5FF05C0E5FF06C0D0
:100E8000E5FF07C0E5FF08C0E5FF09C0E5FF0AC0B0
:100E9000E5FF0BC0E5FF0CC0E5FF0DC0E5FF020E4E
:100EA000DBCF00F0030EDBCF01F0040EDBCF02F04E
:100EB000050EDBCF03F0060EDBCF04F0070EDBCF11
:100EC00005F0080EDBCF06F0090EDBCF07F0086A4D
:100ED000096A0A6A0B6A200E0C6E0350800BE84404
:100EE0000D6E0050002601360236033608500826E3
:100EF00009360A360B360D50D8A4088007500B5C13
:100F000008E106500A5C05E10550095C02E1045065
:100F1000085C09E30450085E0550095A06500A5A55
:100F200007500B5A00800C040D6E0DC00CF00D50D4
:100F3000D4E103C0E9FF02C0F4FF01C0F3FF005099
:100F4000E4CF0DF0E4CF0CF0E4CF0BF0E4CF0AF0E7
:100F5000E4CF09F0E4CF08F0E4CF07F0E4CF06F0E7
:100F6000E4CF05F0E4CF04F0E4CF03F0E4CF02F0E7
:100F7000E4CF01F0E4CF00F0E4CFD9FF120000C0CD
:100F8000E5FF01C0E5FF03C0E5FF04C0E5FF05C0C4
:100F9000E5FF06C0E5FF07C0E5FF08C0E5FF09C0A3
:100FA000E5FF0AC0E5FF0BC0E5FF90C400F091C467
:100FB00001F00401903F01D0912B0050E56EC4EC8C
:100FC00012F0E652076E046A056A066A90C400F0E1
:100FD00091C401F00401903F01D0912B0050E56EC7
:100FE000C4EC12F0E6520B6A0A6E086A085004124A
:100FF00005120A5006120B50071290C400F091C45B
:1010000001F00401903F01D0912B0050E56EC4EC3B
:1010100012F0E652036E006A03C001F0E86A03BEF4
:10102000FF0E086E096E00500412015005120850A0
:1010300006120950071290C400F091C401F0040197
:10104000903F01D0912B0050E56EC4EC12F0E652B7
:10105000016A0412015005120612071207C0E9FFC7
:1010600006C0F4FF05C0F3FF0450E4CF0BF0E4CF5B
:101070000AF0E4CF09F0E4CF08F0E4CF07F0E4CFC2
:1010800006F0E4CF05F0E4CF04F0E4CF03F0E4CFC2
:1010900001F0E4CF00F0120000C0E5FF01C0E5FF61
:1010A00002C0E5FF03C0E5FF04C0E5FF0F013151B9
:1010B0000F01301901E15CD031CF00F0002A009E11
:1010C000600E0024016E026A000E022201C0E9FFD8
:1010D00002C0EAFFEFCF3DF41F0E04013D1731CFF0
:1010E0003CF43D5104013C273C2B3C2B3C9F35EC10
:1010F00010F0016E015003E1016A012A01D0016A7A
:1011000035EC10F004013D6F800E3D15026E1F0E90
:101110003D15036E03C004F003C03DF4045003E129
:1011200030CF31FF38D001501BE002501FE035ECCA
:1011300010F0006E04013D070050420A17E0005015
:101140004E0A03E152EC0DF011D00050460A03E1C3
:1011500006EC13F00BD00050490A08E1FF0006D05E
:1011600031CF3EF40250D8B4ECEC05F03CC431FF72
:101170000F0125510F01261906E00F01325103E13D
:10118000D6EC08F008D08BB006D00F01325103E145
:10119000ACB2D2EC12F0E4CF04F0E4CF03F0E4CF31
:1011A00002F0E4CF01F0E4CF00F0120000C0E5FF50
:1011B00001C0E5FF02C0E5FF03C0E5FFACA276D0A9
:1011C00015EC11F0006E005005E10F01266B0F01C8
:1011D000256B6CD026CF01F00050012615EC11F0E4
:1011E000026E00060250230A1FE1010E005CD8A027
:1011F0005BD015EC11F0026E690A03E1DBEC0FF035
:1012000053D00250720A03E1D2EC12F04DD00250DA
:10121000730A01E049D08B80AB869D8A9D98AE50C1
:10122000AE50AB98AB8840D00250430A05E0025064
:10123000420A01E039D001D0008E00C034FF0050D6
:101240000401006F010E0F01356F0F0126510118C7
:1012500014E015EC11F0026E0F013427000E0F019F
:101260003525006E036A040E032200C0E9FF03C0A7
:10127000EAFF02C0EFFF352BE8D7000E0F0135253E
:10128000006E026A040E02220F01341D036E032A4F
:1012900000C0E9FF02C0EAFF03C0EFFF0F01352BDA
:1012A00035CF32FF0F012C6B01C026FFE4CF03F0D6
:1012B000E4CF02F0E4CF01F0E4CF00F01200D9CF88
:1012C000E5FFE1CFD9FF00C0E5FF01C0E5FF02C0A7
:1012D000E5FF03C0E5FF04C0E5FF05C0E5FF06C06C
:1012E000E5FF07C0E5FF020EDBCF00F0030EDBCF0A
:1012F00001F0040EDBCF02F0050EDBCF03F002C0DD
:1013000006F00650046E800A33E100C0E9FF01C018
:10131000F3FF02506FEC11F0056EF3CF06F0F4CF3F
:1013200007F003C0E5FF05C0E9FF06C0F3FF075063
:1013300011EC13F000C0E9FF01C0F3FF02506FECA5
:1013400011F0056EF3CF06F0F4CF07F0052A02E3A3
:10135000064A072A05C0E5FF06C0F4FF07C0F6FFEE
:1013600000C0E9FF01C0F3FF0250B5EC12F01DD040
:1013700004AA1BD0047A045004E1035045EC13F096
:1013800014D00450010A04E1035002EC00F00DD027
:1013900004500F0A04E10350AAEC0FF006D00450E9
:1013A0000E0A03E1035058EC13F0E4CF07F0E4CF4A
:1013B00006F0E4CF05F0E4CF04F0E4CF03F0E4CF8F
:1013C00002F0E4CF01F0E4CF00F0E4CFD9FF120047
:1013D000D9CFE5FFE1CFD9FF00C0E5FF01C0E5FFB0
:1013E00002C0E5FF03C0E5FF04C0E5FF05C0E5FF5F
:1013F00006C0E5FF07C0E5FF020EDBCF00F0030EDD
:10140000DBCF01F0040EDBCF02F0050EDBCF03F0E3
:1014100026CF27FF0F0125510F01275F270703C0A4
:1014200004F0056A030E0426D8B0052A27CF06F07B
:10143000076A0750800FF36E0550800FF35C02E1DE
:101440000450065C02E2E8682BD0020E035C02E264
:10145000E86A26D003060350E56E8DEC0EF0E652E6
:10146000046A0350045C14E204500024056EE86A28
:101470000120066EE86A022005C0E9FF06C0F3FFFE
:1014800093EC12F0042AE56E8DEC0EF0E652E9D7EB
:1014900026CF27FF0F0125510F01275F2707E86A95
:1014A000E4CF07F0E4CF06F0E4CF05F0E4CF04F09A
:1014B000E4CF03F0E4CF02F0E4CF01F0E4CF00F09A
:1014C000E4CFD9FF1200D9CFE5FFE1CFD9FF00C0AB
:1014D000E5FF01C0E5FF02C0E5FF03C0E5FF04C072
:1014E000E5FF05C0E5FF06C0E5FF020EDBCF00F01B
:1014F000030EDBCF01F0040EDBCF02F0050EDBCFD5
:1015000003F0D88001AED890046A0436045007E096
:10151000011C066E001C056E054A062A04D000C098
:1015200005F001C006F0D88003AED89007E3031C95
:10153000016E021C006E004A012A04D002C000F0B5
:1015400003C001F00150E56E0050E56E0650E56EF7
:101550000550E56E07EC0CF0006EF3CF01F0040EC1
:10156000E12604500AE0011C036E001C026E024AD0
:10157000032A03C0F3FF025003D001C0F3FF005061
:10158000E4CF06F0E4CF05F0E4CF04F0E4CF03F0BD
:10159000E4CF02F0E4CF01F0E4CF00F0E4CFD9FFD4
:1015A0001200D9CFE5FFE1CFD9FF00C0E5FF01C0B0
:1015B000E5FF02C0E5FF03C0E5FF04C0E5FF05C08D
:1015C000E5FF020EDBCF00F0030EDBCF01F0040ECF
:1015D000DBCF02F0050EDBCF03F090C404F091C422
:1015E00005F00401903F01D0912B0350E56E0450AB
:1015F000E56ED1EC10F0E652E65290C404F091C4CE
:1016000005F00401903F01D0912B0250056EE56E6C
:101610000450E56ED1EC10F0E652E65290C404F0AE
:1016200091C405F00401903F01D0912B0150056E4B
:10163000E56E0450E56ED1EC10F0E652E65290C42F
:1016400004F091C405F00401903F01D0912B0050AB
:10165000E56E0450E56ED1EC10F0E652E652E4CFB0
:1016600005F0E4CF04F0E4CF03F0E4CF02F0E4CFE0
:1016700001F0E4CF00F0E4CFD9FF1200D9CFE5FFAD
:10168000E1CFD9FF00C0E5FF01C0E5FF02C0E5FFE3
:1016900003C0E5FF04C0E5FF05C0E5FF06C0E5FFA8
:1016A000020EDBCF00F0030EDBCF01F0040EDBCF28
:1016B00002F00401885119E1BFEC07F0036EF3CF8B
:1016C00004F0F4CF05F0E9CF06F003C0E5FF04C055
:1016D000F4FF05C0F6FF06C0F7FF00C0E9FF01C038
:1016E000F3FF0250A4EC12F01ED004018851010A4D
:1016F0001AE100C0E9FF01C0F3FF0250F5EC10F061
:10170000006EF3CF01F0F4CF02F0E9CF03F0035005
:10171000E56E0250E56E0150E56E0050E56ED1ECCD
:101720000AF0040EE126E4CF06F0E4CF05F0E4CFA2
:1017300004F0E4CF03F0E4CF02F0E4CF01F0E4CF13
:1017400000F0E4CFD9FF1200D9CFE5FFE1CFD9FFF8
:1017500000C0E5FF01C0E5FF02C0E5FF03C0E5FFF3
:1017600004C0E5FF05C0E5FF06C0E5FF020EDBCFC4
:1017700000F0030EDBCF01F0040EDBCF02F0050E0C
:10178000DBCF03F0060EDBCF04F0070EDBCF05F056
:10179000080EDBCF06F0D88003AED89015E30650D4
:1017A0000A0A12E104C0E9FF05C0EAFF2D0EEF6E40
:1017B000044A052A031E021E011E006C05E1012ACF
:1017C00003E1022AD8B4032A0650E56E0550E56EFF
:1017D0000450E56E0350E56E0250E56E0150E56E73
:1017E0000050E56E10EC05F0070EE126E4CF06F0A0
:1017F000E4CF05F0E4CF04F0E4CF03F0E4CF02F04F
:10180000E4CF01F0E4CF00F0E4CFD9FF1200D9CF4C
:10181000E5FFE1CFD9FF00C0E5FF01C0E5FF02C051
:10182000E5FF03C0E5FF04C0E5FF05C0E5FF06C016
:10183000E5FF020EDBCF00F0030EDBCF01F0040E5C
:10184000DBCF02F0050EDBCF03F0046A056A03501C
:10185000800BE844066E065011E102500226033662
:101860000350015C02E10250005C04E2D8900332B4
:10187000023204D0052A05C004F0E9D70350015C08
:1018800002E10250005C04E30250005E0350015A82
:10189000D8900332023204C005F004060550EEE190
:1018A00001C0F3FF0050E4CF06F0E4CF05F0E4CF31
:1018B00004F0E4CF03F0E4CF02F0E4CF01F0E4CF92
:1018C00000F0E4CFD9FF120000C0E5FF01C0E5FF42
:1018D00002C0E5FF03C0E5FF31CF00F0016A3EC45E
:1018E00002F0036A0250005E0350015AE56A800E5E
:1018F000E56E0150E56E0050E56E63EC0AF0006E97
:10190000040EE12600063EC401F0430EAAEC0FF0DF
:10191000200EAAEC0FF0005020E0600E0124026EB1
:10192000036A000E032202C0E9FF03C0EAFFEFCF03
:1019300002F0E56A0250E56E000EE56E250EE56EDA
:10194000BC0EE56E94EC0DF0050EE126012A015067
:10195000800A01E1016A0006DED7E4CF03F0E4CF9C
:1019600002F0E4CF01F0E4CF00F01200D9CFE5FFA0
:10197000E1CFD9FF00C0E5FF01C0E5FF02C0E5FFF0
:1019800003C0E5FF04C0E5FF020EDBCF00F0030E4D
:10199000DBCF01F0040EDBCF02F00401885111E12E
:1019A00076EC0FF0036EF3CF04F003C0E5FF04C044
:1019B000F4FF00C0E9FF01C0F3FF0250EEEC12F0AB
:1019C00016D004018851010A12E100C0E9FF01C0EC
:1019D000F3FF02502EEC12F0006EF3CF01F0015035
:1019E000E56E0050E56E50EC0EF0E652E652E4CFA4
:1019F00004F0E4CF03F0E4CF02F0E4CF01F0E4CF51
:101A000000F0E4CFD9FF1200680EF66E260EF76ED6
:101A1000000EF86E0900F550056E0900F550066ECF
:101A200004E1056702D051EF0DF00900F550006E9A
:101A30000900F550016E0900F550026E0900090019
:101A4000F550E96E0900F550EA6E09000900090039
:101A5000F550036E0900F550046E09000900F6CF39
:101A600007F0F7CF08F0F8CF09F000C0F6FF01C08B
:101A7000F7FF02C0F8FF035002E1045007E009003D
:101A8000F550EE6E0306F8E20406F9D707C0F6FF3C
:101A900008C0F7FF09C0F8FF050601E2060610EFCF
:101AA0000DF0120000C0E5FF01C0E5FF02C0E5FF38
:101AB00035EC10F0006E35EC10F0016E0050026E47
:101AC000D00E0224006E0A0E005C05E30050026E88
:101AD000F90E0224006E0150026ED00E0224016E37
:101AE0000A0E015C05E30150026EF90E0224016E3C
:101AF000080E005C12E2100E015CD8B00ED0003867
:101B0000F00B0124006E04EC0FF0016E015005E1B2
:101B10000050E56EA4EC11F0E652E4CF02F0E4CF01
:101B200001F0E4CF00F01200D9CFE5FFE1CFD9FFFB
:101B300000C0E5FF01C0E5FF02C0E5FF020ED924A9
:101B4000006E000EDA20016E800E026E030E00267B
:101B5000000E012202220250E56E0150E56E005097
:101B6000E56E040EDBCFE5FF030EDBCFE5FF020ED3
:101B7000DBCFE5FF04018751E56E8651E56E8551A7
:101B8000E56E0EEC00F0006EF3CF01F0090EE126D9
:101B900001C0F3FF0050E4CF02F0E4CF01F0E4CF46
:101BA00000F0E4CFD9FF1200D9CFE5FFE1CFD9FF94
:101BB00000C0E5FF01C0E5FF02C0E5FF03C0E5FF8F
:101BC000020EDBCF00F0030EDBCF01F0040EDBCF03
:101BD00002F0040188510DE102EC12F0036E03C023
:101BE000E5FF00C0E9FF01C0F3FF025011EC13F064
:101BF0000FD004018851010A0BE100C0E9FF01C0C8
:101C0000F3FF025093EC12F0E56E86EC10F0E65212
:101C1000E4CF03F0E4CF02F0E4CF01F0E4CF00F032
:101C2000E4CFD9FF120001C0E5FF02C0E5FF03C009
:101C3000E5FF3BEC13F094928B920BEC10F0F3CF9A
:101C400001F0F4CF02F0E9CF03F0880F0401306F08
:101C5000130E0120316F000E0220326F000E0320A0
:101C6000336FBA820F01549B54990F01556BBD9A83
:101C7000BD98BE6A669A6698676A92980C0E0F01C4
:101C8000546F9494B96AB980BD6E9396636A638009
:101C9000666EE4CF03F0E4CF02F0E4CF01F012006F
:101CA000D9CFE5FFE1CFD9FF00C0E5FF01C0E5FFD7
:101CB00002C0E5FF03C0E5FF020EDBCF00F0030E1C
:101CC000DBCF01F090C402F091C403F00401903F17
:101CD00001D0912B0150E56E0250E56ED1EC10F071
:101CE000E652E65290C402F091C403F00401903F22
:101CF00001D0912B0050E56E0250E56ED1EC10F052
:101D0000E652E652E4CF03F0E4CF02F0E4CF01F074
:101D1000E4CF00F0E4CFD9FF1200D9CFE5FFE1CF47
:101D2000D9FF00C0E5FF01C0E5FF02C0E5FF03C029
:101D3000E5FF04C0E5FF020EDBCF00F025CF01F088
:101D4000026A014A022A26CF03F0046A01500318EE
:101D500003E10250041801E001D00ED0000E0F0183
:101D60002525016E026A070E022201C0E9FF02C0AA
:101D7000EAFF00C0EFFF252BE4CF04F0E4CF03F02F
:101D8000E4CF02F0E4CF01F0E4CF00F0E4CFD9FFDC
:101D90001200D9CFE5FFE1CFD9FF00C0E5FF01C0B8
:101DA000E5FF02C0E5FF03C0E5FF020EDBCF00F058
:101DB000016A3EC402F0036A025000260350012269
:101DC000E56A800EE56E0150E56E0050E56E63EC4D
:101DD0000AF0006EF3CF01F0040EE126600E00263B
:101DE000000E012200C0E9FF01C0EAFFEFCF00F0C2
:101DF0000050E4CF03F0E4CF02F0E4CF01F0E4CFF1
:101E000000F0E4CFD9FF120000C0E5FF01C0E5FFFC
:101E100002C0E5FF010E006E35EC10F0016E01C04E
:101E200002F0015023E00050E56EC4EC12F0016EA8
:101E3000E652015010E10A0E005C0BE20A0E006E41
:101E4000E56EC4EC12F0016EE652015004E1E86860
:101E50000ED0E8680CD00150021802E0E86807D004
:101E6000002A1B0E005CD8E3E86801D0E86AE4CFE2
:101E700002F0E4CF01F0E4CF00F01200F3CFE5FF71
:101E8000F4CFE5FFE9CFE5FFEACFE5FFFACFE5FFC5
:101E9000FBCFE5FF0F0123510401366F0F012451E1
:101EA0000401376FD650346FD750356FF2A411D07C
:101EB0000F01233F01D0242BF2940F012351040181
:101EC000366F0F0124510401376FD650346FD7504D
:101ED000356FE4CFFBFFE4CFFAFFE4CFEAFFE4CFB6
:101EE000E9FFE4CFF4FFE4CFF3FF110000C0E5FF0A
:101EF00001C0E5FF02C0E5FF03C0E5FF90C400F0AC
:101F000091C401F00401903F01D0912B0050E56E87
:101F1000C4EC12F0E652036E026A90C400F091C461
:101F200001F00401903F01D0912B0050E56EC4EC0C
:101F300012F0E652016A02120150031203C0F3FFCD
:101F40000250E4CF03F0E4CF02F0E4CF01F0E4CF9D
:101F500000F0120000C0E5FF01C0E5FF02C0E5FF90
:101F6000006E000E0F012A25016E026A0F0E02227A
:101F700001C0E9FF02C0EAFF00C0EFFF220E2A5DA8
:101F800001E22A2B00500A0A0FE10F012A51E56EE7
:101F9000800EE56E0F0EE56E000EE56EE8EC09F0C2
:101FA000040EE1260F012A6BE4CF02F0E4CF01F02A
:101FB000E4CF00F012000F01256B0F01266B0F011B
:101FC00027698B809490B06A3F0EAF6EB886AC8A5A
:101FD000AC84AC8CAC90AB8CAB8E0F01336B0F012F
:101FE0002D6B0F01306B0F01316B0F01326B000E47
:101FF000E56AC4EC12F00F01296FE6529F989F9A90
:10200000010E0F01286F0401856B866B2F0E876F01
:10201000D2EC12F012000F0123510401836F0F0163
:1020200024510401846FD650816FD750826F835141
:102030000F01231905E1040184510F0124190CE05B
:102040000F0123510401836F0F0124510401846F98
:10205000D650816FD750826F84C4E9FF83C4F4FFE8
:1020600082C4F3FF04018151120000C0E5FF01C0EA
:10207000E5FF0F01315104013C1905E00F01315119
:102080000F01301902E1E86A15D031CF00F00F01DD
:10209000312B016A600E0026000E012200C0E9FF0C
:1020A00001C0EAFFEFCF00F03151800A02E10F01D9
:1020B000316B0050E4CF01F0E4CF00F0120000C01B
:1020C000E5FF49EC13F00401896B806B8983006A9A
:1020D00089B3002A0050010BE844F46E8051FD0BD7
:1020E000F410806FD58ED59CD59AD588D596D59489
:1020F000D582D580F28AF184D08EF28EF28CBA80AD
:10210000FF0EBB68BA84E4CF00F01200D9CFE5FF20
:10211000E1CFD9FF00C0E5FF01C0E5FF02C0E5FF48
:10212000020EDBCF00F090C401F091C402F0040174
:10213000903F01D0912B0050E56E0150E56ED1EC3F
:1021400010F0E652E652E4CF02F0E4CF01F0E4CF23
:1021500000F0E4CFD9FF1200D8CFE5FFE0CFE5FFD4
:10216000E56EF3CFE5FFF4CFE5FFE9CFE5FFEACF7A
:10217000E5FFFACFE5FFFBCFE5FF0EEC04F0E4CF7F
:10218000FBFFE4CFFAFFE4CFEAFFE4CFE9FFE4CFBF
:10219000F4FFE4CFF3FFE450E4CFE0FFE4CFD8FF57
:1021A0001000D9CFE5FFE1CFD9FF00C0E5FF020E57
:1021B000DBCF00F0030EDBCFA8FF00C0A9FFA69E77
:1021C000A69CA684F29EF29C550EA76EAA0EA76E40
:1021D000A682A6A202D00000FCD7A694F28EF28CB2
:1021E000E4CF00F0E4CFD9FF1200E8AE0AD0F3CF7D
:1021F000EAFFEE50EECFF3FFEECFF4FFEECFE9FFB4
:102200001200E8BC65EF13F0E9CFF6FFF3CFF7FF5C
:10221000F86E0900F5500900F5CFF3FF0900F5CF7E
:10222000F4FF0900F5CFE9FF120000C0E5FF01C08F
:10223000E5FF0F0125510F01261902E1E86A0FD0D1
:10224000000E0F012625006E016A070E012200C054
:10225000E9FF01C0EAFFEFCF00F0262B0050E4CFEA
:1022600001F0E4CF00F01200F2CFEAFFF29EA69E4A
:10227000A69CA684E9CFA9FFF3CFAAFFE4CFA8FFCD
:102280001CEC13F0F4CFA8FF1CEC13F0F6CFA8FF62
:102290001CEC13F0F7CFA8FF1CEC13F0A694EABED9
:1022A000F28E1200F2CFF6FFF29EA69EA69CE9CF18
:1022B000A9FFF3CFAAFFA680A850A94AAA2AA68000
:1022C000A8CFF3FFA94AAA2AA680A8CFF4FFA94A5B
:1022D000AA2AA680A8CFEAFFF6BEF28E1200E8AEC8
:1022E00008D0F3CFEAFFEE50EECFF3FFEECFF4FFCE
:1022F0001200E8BC67EF13F0E9CFF6FFF3CFF7FF6A
:10230000F86E0900F5500900F5CFF3FF0900F5CF8D
:10231000F4FF1200F2CFEAFFF29EA69EA69CA684CE
:10232000E9CFA9FFF3CFAAFFE4CFA8FF1CEC13F07D
:10233000F4CFA8FF1CEC13F0F6CFA8FF1CEC13F0B1
:10234000A694EABEF28E1200D9CFE5FFE1CFD9FF05
:1023500000C0E5FF020EDBCF00F000C029FF0050F7
:10236000E56E000EE56AD1EC10F0E652E652E4CFDD
:1023700000F0E4CFD9FF1200F2CFF6FFF29EA69E46
:10238000A69CE9CFA9FFF3CFAAFFA680A850A94A2F
:10239000AA2AA680A8CFF3FFA94AAA2AA680A8CF76
:1023A000F4FFF6BEF28E120000C0E5FF01C0E5FFAB
:1023B000600E0F013125006E016A000E012200C07F
:1023C000E9FF01C0EAFFEFCF00F00050E4CF01F0D9
:1023D000E4CF00F01200D9CFE5FFE1CFD9FF00C074
:1023E000E5FF020EDBCF00F0610E005C05E37B0E23
:1023F000005C02E2010E01D0E86AE4CF00F0E4CF15
:10240000D9FF120000C0E5FF01C0E5FF90C400F055
:1024100091C401F00401903F01D0912B0050E56E72
:10242000C4EC12F0E652E4CF01F0E4CF00F0120069
:10243000D9CFE5FFE1CFD9FF00C0E5FF020EDBCF2A
:1024400000F000C028FF005004E1D2EC12F09D9A89
:102450009D98E4CF00F0E4CFD9FF1200E8AE06D09B
:10246000F3CFEAFFEE50EECFF3FF1200E8BC63EFCC
:1024700013F0E9CFF6FFF3CFF7FFF86E0900F55040
:102480000900F5CFF3FF1200F2CFEAFFF29EA69EFD
:10249000A69CA684E9CFA9FFF3CFAAFFE4CFA8FFAB
:1024A0001CEC13F0F4CFA8FF1CEC13F0A694EABECA
:1024B000F28E120018EEFFF028EEFFF0F86AA68EFA
:1024C000A69CE9680E0EEA6E0068000EED6A0050E8
:1024D000FDE104EC0DF006EC00F0FFD7F2CFF6FFC3
:1024E000F29EA69EA69CE9CFA9FFF3CFAAFFA680E5
:1024F000A850A94AAA2AA680A8CFF3FFF6BEF28E5A
:102500001200F2CFEAFFF29EA69EA69CA684E9CF17
:10251000A9FFF3CFAAFFE4CFA8FF1CEC13F0A69409
:10252000EABEF28E1200E8AE04D0F3CFEAFFEE501E
:102530001200E8BC61EF13F0E9CFF6FFF3CFF7FF2D
:10254000F86E0900F5501200E8AE0BD0F3CFEAFFA9
:10255000E4CFEEFFF4CFEEFFF6CFEEFFF7CFEEFFC6
:102560001200E8BC5FEF13F01200E8AE09D0F3CF21
:10257000EAFFE4CFEEFFF4CFEEFFF6CFEEFF12005E
:10258000E8BC69EF13F01200D9CFE5FFE1CFD9FF26
:10259000020EDBCFA9FFA69CA69EA680A850E4CF82
:1025A000D9FF1200ACA2FED78B80AE500000AE5017
:1025B000AB98AB88AB869D8A9D981200256420005D
:1025C000F2CFF6FFF29EA69EA69CE9CFA9FFF3CF1D
:1025D000AAFFA680A850F6BEF28E1200E8AE07D081
:1025E000F3CFEAFFE4CFEEFFF4CFEEFF1200E8BC3A
:1025F0005DEF13F01200700ED36E9B8CFF0E92688D
:10260000936894689668626AF19E120000C0E5FFC4
:1026100004EC0FF0006E005001E1FF00E4CF00F089
:102620001200E8AE05D0F3CFEAFFE4CFEEFF1200D0
:10263000E8BC5BEF13F01200550EA76EAA0EA76E52
:10264000A682A6B2FED7A94AAA2A010E0401886F63
:102650001C0E0401906F916B12000401886B1C0E1C
:102660000401906F916B1200010080260000230F7F
:102670000000090000005FEC10F0DBEC0FF012002E
:1026800000000000FF0000000000ACA2FED7AD6E0D
:102690001200FBEC12F012004CEC08F012000F01DB
:1026A0003151120004013D5112000F012851120056
:1026B000E8CF7FFF120081EF12F044EF12F034EF09
:1026C00011F0E0EF12F06EEF12F052EF11F0BCEFEC
:0626D00011F08AEF11F089
:00000001FF
